:020000040800F2
:10000000F83C0020950200086F430008093F0008F3
:100010006D430008BD1E0008C9570008000000001D
:10002000000000000000000000000000FD010008CA
:10003000331F00080000000041020008FD4A0008CC
:10004000AF020008AF020008AF020008AF020008CC
:10005000AF020008AF020008AF020008AF020008BC
:10006000AF020008AF020008AF020008AF020008AC
:10007000C11E0008CD1E0008D91E0008E51E00089C
:10008000AF020008AF020008AF020008AF0200088C
:10009000AF020008AF020008AF020008AF0200087C
:1000A000AF020008AF020008AF020008AF0200086C
:1000B000AF020008914B00089D4B0008AF020008FA
:1000C000AF020008AF020008AF020008AF0200084C
:1000D000AF020008795400088D54000871550008DB
:1000E000AF020008AF020008AF020008AF0200082C
:1000F000AF020008AF020008AF020008AF0200081C
:10010000AF020008AF020008AF020008AF0200080B
:10011000F54F0008AF020008D94B0008E54B000876
:10012000AF020008AF020008F11E0008FD1E000823
:1001300000F002F800F053F80AA090E8000C8244A6
:100140008344AAF10107DA4501D100F048F8AFF283
:10015000090EBAE80F0013F0010F18BFFB1A43F0A5
:10016000010318477CA400009CA40000103A24BF9F
:1001700078C878C1FAD8520724BF30C830C144BF0C
:1001800004680C607047000000230024002500264E
:10019000103A28BF78C1FBD8520728BF30C148BFEA
:1001A0000B607047642900F0FB80782900F03481EF
:1001B000732900F00084002070471FB500F034FD63
:1001C00004000020002108F02FFF401C6060002088
:1001D000002108F013FFE0601FBD10B510BD00F056
:1001E000FDFC1146FFF7E9FF06F028FD00F0AAFF2D
:1001F00003B4FFF7F2FF03BC05F0C8FE224B1968F9
:100200000868B0E8F00F80F30988BFF36F8F4FF0F4
:10021000000080F311884EF00D0E704700000000C2
:1002200006480068006880F3088862B661B6BFF3CC
:100230004F8FBFF36F8F00DF00BF00BF08ED00E0FE
:10024000EFF30980BFF36F8F0F4B1A6820E9F00FAF
:10025000106008B54FF0500080F31188BFF34F8F46
:10026000BFF36F8F07F0C0FE4FF0000080F31188DE
:10027000BDE8084019680868B0E8F00F80F3098805
:10028000BFF36F8F704700BFA8000020EFF3058019
:10029000704700000948804709480047FEE7FEE72D
:1002A000FEE7FEE7FEE7FEE7FEE7FEE7FEE7FEE726
:1002B00004480549054A064B704700008D4B00086D
:1002C00031010008F8360020F83C0020F838002002
:1002D000F8380020704700000FB41CB5074B06AA81
:1002E0007B4469460090059800F03BFB002069467E
:1002F00000F04AFB1CBC5DF814FB0000A5060000E2
:1003000070B5044685690068C10601D5302600E055
:100310002026C00707D070BDD4E9012130469047A0
:10032000206A401C20626D1EF6D570BD70B5044673
:1003300085690078C00707D170BDD4E9012120206C
:100340009047206A401C20626D1EF6D570BD70B5C6
:100350000C460546012A05D02878800600D5EA69B2
:10036000002302E0012305E05B1C934202D2E05C23
:100370000028F9D1A869E618C01AA861286A1844AB
:1003800028622846FFF7BCFF04E0D5E9012114F8F4
:10039000010B9047B442F8D32846FFF7C7FF70BD62
:1003A0002DE9F0410646002410687529314616A54E
:1003B00010D0AFF30080002802DA404213A507E016
:1003C00031688A0701D512A502E0490704D511A5B5
:1003D000012401E0AFF3008000210A2206F1240786
:1003E00009E0B0FBF2FCB0FBF2F302FB1C00303082
:1003F00078541846491C0028F3D123462A46304633
:10040000BDE8F04100F04FBA000000002D000000F0
:100410002B0000002000000070B504460D46214668
:100420001068AFF300802188090502D50F4A7A448D
:1004300002E00E4A7A440E32002104F1240305E062
:1004400000F00F060009965D5E54491C0028F7D1A4
:1004500020780023000704D5702D02D009B10223B3
:1004600011322046BDE8704000F01DBA509E0000D9
:100470002DE9F05F894604464FF0000ADFF824B109
:10048000FB44C0F820A02046E168884700287DD0C2
:10049000252806D0D4E901219047206A401C20621B
:1004A000F1E700255F462046E16888472028064698
:1004B00007DB312E05D2B81910F8200C08B105431E
:1004C000F1E7A80701D525F00405C4F81CA0002712
:1004D000C4F818A02A2E09D0304605F050FD38B3D4
:1004E00004EB8708303EC8F8186019E059F8041B7F
:1004F000204604EB87029161E1688847012F064698
:1005000018D1E069002820DA25F020051DE0D8F890
:10051000180000EB800006EB40003038C8F81800E7
:100520002046E1688847064605F029FD0028EED1FF
:10053000012F0AD02E2E08D12046E16888477F1C63
:100540000646022F45F02005C4DBA069002803DA27
:10055000404245F00105A061E80701D025F01005F3
:10056000A6B1A6F14100192802D8203645F400654D
:100570004A463146204625604D46FFF713FE60B1DE
:10058000012807D0ED1D25F0070000E007E000F18D
:10059000080978E705F1040975E730467AE7206A2B
:1005A000BDE8F09F269E000070B5064600F06CF98D
:1005B0000468054630460A22002100F053FA2C60F8
:1005C00070BD401ECAB210F8011F8A4202D0002935
:1005D000F9D10020704710B5431C02E010F8011B50
:1005E00071B18107FAD14FF0013202C88C1A8C43E5
:1005F00014EAC211F9D0C01A0A0603D0C01E10BDF9
:10060000C01A10BD0A0401D0801E10BD0902FCD022
:10061000401E10BD40EA010370B59B072ED14FF07C
:100620000136042A2AD308C810C99D1B9D43121FF6
:1006300015EAC61517D0D8B2E1B2401A50EA0561E2
:1006400010D198B2A1B2401A50EA05410AD123F064
:100650007F4024F07F41401A50EA052102D1180E54
:10066000A0EB146070BDA342DBD018BA21BA884257
:1006700001D9012070BD4FF0FF3070BD0AB90020D4
:1006800070BD10F8013B11F8014B63B1A3420AD1D0
:10069000521E08D010F8013B11F8014B1BB1A342C8
:1006A00001D1521EEDD1181B70BD032A40F23080DB
:1006B00010F0030C00F0158011F8013BBCF1020FA3
:1006C000624498BF11F801CB00F8013B38BF11F824
:1006D000013BA2F1040298BF00F801CB38BF00F83B
:1006E000013B11F0030300F02580083AC0F00880B8
:1006F00051F8043B083A51F804CBA0E80810F5E79C
:10070000121D5CBF51F8043B40F8043BAFF300807E
:10071000D20724BF11F8013B11F801CB48BF11F8F3
:10072000012B24BF00F8013B00F801CB48BF00F8C3
:10073000012B704710B5203AC0F00B80B1E818507B
:10074000203AA0E81850B1E81850A0E81850BFF4BB
:10075000F5AF5FEA027C24BFB1E81850A0E818505A
:1007600044BF18C918C0BDE810405FEA827C24BFAE
:1007700051F8043B40F8043B08BF7047D20728BF3C
:1007800031F8023B48BF11F8012B28BF20F8023B8B
:1007900048BF00F8012B70474FF000020429C0F059
:1007A000128010F0030C00F01B80CCF1040CBCF1A3
:1007B000020F18BF00F8012BA8BF20F8022BA1EBF5
:1007C0000C0100F00DB85FEAC17C24BF00F8012BDA
:1007D00000F8012B48BF00F8012B70474FF00002D2
:1007E00000B5134694469646203922BFA0E80C5027
:1007F000A0E80C50B1F12001BFF4F7AF090728BF02
:10080000A0E80C5048BF0CC05DF804EB890028BF7D
:1008100040F8042B08BF704748BF20F8022B11F0A6
:10082000804F18BF00F8012B704710B5044610F038
:10083000030F08BF11F0030F40F015804FF0013E89
:10084000121FC0F20E8051F8043BA3EB0E0C2CEAF1
:10085000030C1CEACE1C08BF40F8043BF0D0A1F109
:10086000040102F10402521E08DB11F8013B002BC7
:1008700000F8013BF7D11146FFF78EFF204610BD6F
:10088000704770477047704700487047983600209F
:1008900010B5FFF7F9FF006810BD10B50446FFF76B
:1008A000F3FF046010BD2DE9F0470D4699469246CE
:1008B000044600F124080168880604D5E06921F0A7
:1008C0001001216000E00120A84201DD471B00E08B
:1008D0000027A1697A1902EB0900081AA0612078A3
:1008E000C00602D42046FFF70BFD002608E0D4E93D
:1008F00001211AF806009047206A401C761C2062ED
:100900004E45F4DB2078C0060AD52046FFF7F8FCF8
:1009100006E0D4E9012130209047206A401C206283
:10092000381EA7F10107F4DC07E0D4E9012118F82B
:1009300005009047206A401C2062281EA5F1010591
:10094000F3DC2046FFF7F2FC2078000602D50220F7
:10095000BDE8F0870120FBE701694A1C02610878C5
:10096000704700B58FB0CDE90131002105910549EF
:100970007944CDE9031011466846FFF779FD0FB0C1
:1009800000BD0000E5FFFFFF0A6802F8010B0A60E6
:10099000704710B5436913B1AFF3008001E0FFF772
:1009A000D6FC012010BD127800F124010A7000224B
:1009B0004A700122EDE711684FF0FF32E9E70000CD
:1009C0000FB4002300B589B00CA900910B99CB603E
:1009D000214B7B440693214B7B44079304236FF008
:1009E0000042CDE901321E4A7A446B460892024623
:1009F000002009F0C2FB09B05DF814FB70B5064693
:100A00004FF0FF3015460C46324686B00091CDE9D6
:100A1000010169460020049004A8FFF7D1FF0246B7
:100A20000498211825B108B1084600E02046286046
:100A3000049800280DD0002A02DD0098884208D0D2
:100A40003246081B69460094CDE9010404A8FFF76B
:100A5000B7FF06B070BD0000290100004101000091
:100A6000010100002DE9F04791460F4680460446FB
:100A7000002614F8015B2DB100F030F80068405DED
:100A8000C007F6D12B2D02D02D2D18D0641E4A465A
:100A90003946204600F053F827B13968A14201D108
:100AA000C7F800804FF0020471050BD540420028C2
:100AB00003DDFFF7E9FE0460A007BDE8F08746F418
:100AC0008066E4E70028F8DAFFF7DEFE04606FF0E6
:100AD0000040F2E7004870479836002010B500F05B
:100AE000A3F8001D10BD00BF4185000010B50446ED
:100AF000FFF7F4FF0068005D00F0010010BD4268E0
:100B000042B1016811F8013B23B1521EC0E9001245
:100B1000184670470121C160881E704742685AB16B
:100B2000C368016843B983688B4205D0491E521CD3
:100B3000C0E90012002070474FF0FF3070472DE9E8
:100B4000F05F824615468B4600270AF10104B9463C
:100B50000078302801D09DB113E014F8010B012773
:100B6000782803D0582801D045B10AE00DB1102DE6
:100B700007D1002714F8010B102502E0082500E03A
:100B80000A250026B0460EE005FB080005FB06F12D
:100B900001271FFA80F801EB1046B6F5803F00D31D
:100BA000B94614F8010B294600F042F80028EBDAA8
:100BB000BBF1000F05D00FB1641E00E05446CBF826
:100BC0000040B9F1000F06D0FFF75EFE0221016080
:100BD000C81EBDE8F09F48EA0640FAE77546FFF7F1
:100BE00079FFAE4605006946534620F0070085466A
:100BF00018B020B5FFF75CFBBDE820404FF00006C1
:100C00004FF000074FF000084FF0000B21F00701F4
:100C1000AC46ACE8C009ACE8C009ACE8C009ACE837
:100C2000C0098D467047000000487047B836002064
:100C30003A2800D2303820F02002412A01D3A2F114
:100C40003700884201D34FF0FF3070472DE9FF4F46
:100C500006468BB00878FF2806D0491C2D2805D001
:100C600000244FF0000908E000200CE00124F8E720
:100C700009EB8903491C00EB43090878FF28F7D1E9
:100C800014B1C9F100008146107800252C46AA460F
:100C900029462D2801D02B2804D1521C2D2813D0F1
:100CA000002082468B461078FF280FD04FF0000CB2
:100CB0000A21521CA5FB017804FB018105FB0C11E4
:100CC000C5194BEB0104EEE70120EAE700210846D5
:100CD0004FF00000BAF1000F02D000EB8000400896
:100CE000C0F38157012F01DD4FF0FF370E9955EA10
:100CF000040009EB01080BD04FF0020918F5FA7F48
:100D000016DA4FEACA70002F706008DD012007E094
:100D10004FEACA70C6E900B00FB0BDE8F08F0020FE
:100D20003060FFF7B1FDC0F800901821084616E0CA
:100D3000B8F5FA7F18DD002F02DAF748784401E0B1
:100D4000F6487844D0E90010C6E9001040EACA70BD
:100D50007060FFF799FDC0F80090142108460FB0AD
:100D6000BDE8F04F09F0A6B9002108464FF0000099
:100D7000B8F10001099002DAC7F1000200E03A463A
:100D800001DAC8F1000106A800F026FA06AB93E8E4
:100D9000070003AB83E8070044F23E005BEA04016E
:100DA0000090584604D144F21E012C465D46009145
:100DB000210C0904014306D10099240444EA154496
:100DC0002D041039009104F07F41014306D10099B0
:100DD000240244EA15642D020839009104F07041A0
:100DE000014306D10099240144EA15742D01091F1D
:100DF000009104F04041014306D10099A40044EA67
:100E00009574AD00891E009104F00041084304D19F
:100E100000986D196441401E00904FF001033A465E
:100E20006846B8F1000FCDE9014503A902DD00F0E5
:100E30000EFF01E000F0E1FEBAF1000F04460D469E
:100E400001D084F00044002108464FF000000999C9
:100E500040F2FF77484010F00C0F07D124F000401B
:100E6000284303D0C4F30A50B84212D1FFF70CFD57
:100E7000C0F80090C4F30A50B8420AD1A848784498
:100E8000D0E90010C6E9001004F00041084370608A
:100E900042E7C6E900543FE72DE9FF4F1F464FF0F8
:100EA000000A4FF0FF38454691B0D7E90146CDF82A
:100EB0003CA0FFF7B9FEC0680168405C1090B969BA
:100EC00012986D1C8847396A814688470028F6D1F8
:100ED000B9F1FF3F0AD0002E24F4D06411DDB9F13E
:100EE0002B0F08D0B9F12D0F0BD102E0404615B001
:100EF00013E744F48064B96912986D1C8847761E24
:100F00008146600504A901D52D2000E02B20002E8C
:100F100001F1010B0DF130088DF810003FDDB9F142
:100F2000690F08D0B9F1490F05D0B9F16E0F02D0A1
:100F3000B9F14E0F1CD13B4601A8009580E8500244
:100F4000DDE912126FF0020009F01BF9C11CCED1CD
:100F50000EE0B96912986D1C884781461398761E79
:100F600044F4007405600F98401C002E0F9016DDAD
:100F7000B9F1300FEDD0B9F1780F02D0B9F1580FB7
:100F80000DD10F9801280AD13B46CDE90054DDE987
:100F90001212001F029609F0F2F8C11CA7D1109995
:100FA00089453ED144F0800406E01399681CAAF1FB
:100FB000010A44F400740860B9696D1C1298761E29
:100FC000884730288146F0D02BE01099894505D11B
:100FD000200603D4761E44F0800418E0484604F04E
:100FE000CEFF08B3761E0DF123018B4544F4007447
:100FF00008D2A9F130000BF8010B200607D5AAF1A1
:10100000010003E0200602D40AF101008246A00597
:1010100002D51399681C0860B96912986D1C88473D
:101020008146002ED1DC53E0002E51DDB9F1650F71
:1010300002D0B9F1450F4BD1A00549D5B9696D1C56
:101040001298761E24F440748847002E81460CDDE9
:101050002B2804D0B9F12D0F07D144F48074B9695D
:1010600012986D1C8847761E8146E00501D52D211A
:1010700000E02B2108F8011BCDF8008021E0761E4E
:101080000DF13901884544F400740CD2A9F1300007
:1010900010F0FF0088F8000002D10099884509D9B6
:1010A00008F1010806E0E00501D51E4801E042F222
:1010B0000F708246B96912986D1C88478146139853
:1010C0000560002E04DD484604F059FF0028D6D103
:1010D000F96912988847FF2053468BF8000088F87A
:1010E000000000200A900B9004AA0CA90AA8FFF7A0
:1010F000ADFDA00502D46FF00100F8E614F0240F56
:1011000012D0E0071CD13868DDE90A12031D3B60EC
:101110000068C0E9001213E0C8980000BA98000007
:101120007E970000F1D8FFFF0AA9684604F0B6FEDA
:10113000E00705D13868009A011D39600068026037
:101140002846D4E610B50446AFF300802046BDE83B
:101150001040FFF74DB800004FF0013C50F8042B51
:1011600051F8043B9A4221D1A2EB0C03934313EABA
:10117000CC1317D150F8042B51F8043B9A4215D1E7
:10118000A2EB0C03934313EACC130BD150F8042BBE
:1011900051F8043B9A4209D1A2EB0C03934313EAA2
:1011A000CC13DBD04FF00000704700BFD01A01BA5B
:1011B000B1FA81F101F0180122FA01F0CB40C1F13E
:1011C0002001DBB2C0B2C01A2CFA01F3D11A91434C
:1011D00011EAC311E6D170472DE9F0478146164662
:1011E0008AB0354878440DC88DE80D0032487844FF
:1011F000801C03AC0DC884E80D0041F69B30084408
:10120000372190FBF1F290FBF1F5A5F1800501FB90
:1012100012041B3C02D56442012000E00020DFF8EC
:1012200098A080460027FA44AAF1BE0A0EE0E00723
:101230000AD03246684607EB470101230AEB8101D9
:1012400000F0F0FC8DE8070064107F1C002CEED14C
:10125000194F7F44AE3F19E0E80715D007EB0410A3
:101260000DF1180A90E80E008AE80E00C068F042FE
:1012700001D1981908903246012306A903A800F06D
:10128000D1FC03AB83E807006D10641C002DE3D193
:101290004FF0010332466946B8F1000F03A802D0AF
:1012A00000F096FC01E000F0BDFCC9E90001C9F8BE
:1012B00008200AB0BDE8F087649300002DE9FF4FD5
:1012C0001F464FF03C0987B04FF00042DDE9141093
:1012D00001F10108DDF858A002EA40500390002017
:1012E00005908346054604460490B969461E089851
:1012F0008847AAF1010A0290BAF1000F3BDD02987B
:101300002E2815D01021FFF793FC00282EDB4FF07C
:10131000010B0599014317D0B9F1000F0BDB4A46C9
:10132000C11700F0F5F905430C43A9F1040905E0E4
:10133000012004900BE008B145F001050120059063
:10134000049820B9361D02E0049800B1361FB9692F
:10135000089808F101088847BBF1000FAAF1010ABB
:101360000290C9D00999C1F80080C5E70298702899
:1013700008D0502806D0F96908988847BBF1000FBB
:1013800014D04FE0002002900120BBF1000F049028
:1013900009D0B969089808F101088847AAF101093C
:1013A000B9F1000F07DCF969089888476FF0010070
:1013B0000BB0BDE8F08F2B2804D02D280CD14FF0B6
:1013C000FF300490B969089808F101088847A9F12D
:1013D0000109B9F1000FE6DD411CE4D00A21FFF755
:1013E00027FC0028DFDB029908F1010801EB8101ED
:1013F00000EB41000290B969089888470A21FFF77D
:1014000017FC099AA9F10109B9F1000FC2F800808F
:1014100001DD0028E7DAF9690898884704990298FD
:1014200000FB016655EA040004D004F040410900C5
:1014300002D006E0039898E0A40044EA9574AD0059
:10144000B61E04F00041080002D16D196441761EF9
:10145000159810F0240F03D04FF00B095C4803E0FF
:101460004FF028096FF07D008246564507DAAAEB57
:1014700006018944B9F1410F01DD4FF04109012016
:101480000021A9F1010200F043F9024628400B4671
:101490002140084301D0012100E00021501E0291AB
:1014A00043F1FF3128402140084301D0012000E0F2
:1014B00000200299834651EA0B014FD000210846D3
:1014C0004FF00000039900F4400039B100EB8000B8
:1014D0004FF4400100EBD07001EA60008015012854
:1014E00002DD4FF0FF3000E013D0401C36D00298F0
:1014F00060B3BBF1000F0CD14A460120002100F07F
:1015000007F928402140084301D0012000E00020D5
:10151000E0B101204A46002100F0FAF803464019E4
:101520000A4661412D1A8C4111D3B9F1400F09DDF2
:10153000159810F0240F02D0AAF1340603E0AAF1A6
:10154000170600E0761C00254FF0004406E05B1E05
:1015500042F1FF3220EA030521EA0204CAF1010048
:10156000B04206DA1B49039808430190002000901E
:101570000EE0039AC4F3D321E80A0A43164940EA6D
:1015800044500A433146CDE90002684604F0ECFCC1
:10159000159810F0240F0BD01598C00715D1386896
:1015A000DDE90012031D3B600068C0E900120CE099
:1015B00002A8694604F072FC1598C00705D1386886
:1015C000029A011D3960006802604046F0E60000A2
:1015D00002FCFFFF0000F07F0000F03F2DE9FF4F0D
:1015E00092461D4685B04FF00041DDE9124BDDE922
:1015F00014727F1E01EA4B50414940F0FF4940EA16
:101600000108002122F020004928049102D04E2830
:1016100028D04CE03BA0012607C88DE80700A96947
:101620000698641C88477F1E014606D41DF80600F4
:1016300018B121F0200181420BD0E9690698884752
:10164000032E34D0082E32D06FF0010009B0BDE86F
:10165000F08F761C032E01D0082EE0D1601CCAF852
:101660000000DCE7A9690698641C88477F1E2AD41D
:1016700020F02000412826D1A9690698641C8847DB
:101680007F1E20D420F020004E281CD1A969069886
:10169000641C88477F1E48F4002849F48009CAF872
:1016A000004001D4282806D0E969069888475FEAF7
:1016B000CB7012D022E0A9690698641C88477F1E6F
:1016C00001D4002803DAE96906988847BCE729288D
:1016D000F1D1641CCAF80040E9E71BF0240F07D0E1
:1016E00028680499031D2B600068C0E9001805E014
:1016F0002868021D2A600068C0F800902046A5E70F
:101700000000F07F494E46494E4954590000000000
:10171000B2F120030AD5C2F1200301FA02F120FA46
:1017200003F300FA02F041EA0301704700FA03F103
:101730004FF00000704720F07F4C80EA030023F058
:101740007F47ACEB070303F57C5300F0004003F147
:10175000FF032DE980494FEA154B09B44FEA1443C2
:1017600025EA0B4E24EA03480FF2042606EB132762
:1017700049083E785FEA320203FB0667C7F50007B7
:1017800007FB06F64FEA54374FEAD64606F1020643
:1017900007FB066CCCF1005C4FEA1C472CEA074CB7
:1017A00007FB06F40CFB06F504EB15464FEA96160C
:1017B00034BF00204FF000404FEAD13706FB07FC52
:1017C0004FEA1C4C0CFB0BF7D21B03FB0CF761EB35
:1017D00007010CFB0EF7B0EB074072EB17420CFB56
:1017E00008F734BFA2EB0742B2EB074261EB1741A7
:1017F0004FEA0C444FEA910706FB07FC4FEA1C4CEA
:101800000CFB0BF7B0EBC74072EB573203FB0CF746
:1018100034BFA2EBC742B2EBC74261EB57310CFBBE
:101820000EF7B0EBC70072EB57720CFB08F734BF32
:10183000A2EBC702B2EBC70261EB5771039F4FEAFD
:10184000816141EA921104EBCC044FEAD1374FEAAF
:10185000826206FB07FC42EA90124FEA80604FEA80
:101860001C4C0CFB0BF7D21B03FB0CF761EB0701C5
:101870000CFB0EF7B0EB074072EB17420CFB08F7BE
:1018800034BFA2EB0742B2EB074261EB17414FEACC
:101890008C554FEA910704EB9C2406FB07FC4FEAAA
:1018A0001C4C0CFB0BF7B0EBC74072EB573203FB41
:1018B0000CF734BFA2EBC742B2EBC74261EB573122
:1018C0000CFB0EF7B0EBC70072EB57720CFB08F77E
:1018D00034BFA2EBC702B2EBC70261EB577115EB45
:1018E0004C254FEA816141EA92114FEA82624FEA48
:1018F000D13742EA901206FB07FC44F100044FEA9C
:1019000080604FEA1C4C0CFB0BF7D21B03FB0CF75F
:1019100061EB07010CFB0EF7B0EB074072EB1742CF
:101920000CFB08F734BFA2EB0742B2EB074261EBB6
:10193000174115EB1C154FEA813141EA92414FEAFC
:10194000823242EA90424FEA80304FEA0C7644F10C
:10195000000448EA03434EEA0B484FF0000EB2EB96
:10196000080C71EB030724BF624639464EEB0E0E9E
:101970004FF0000B0018524149414BEB0B0BB2EBFF
:10198000080C71EB03077BF1000B24BF624639465C
:101990004EEB0E0E4FF0000B0018524149414BEB3D
:1019A0000B0BB2EB080C71EB03077BF1000B24BFB0
:1019B000624639464EEB0E0E51EA020718BF46F05A
:1019C000010616EB0E7655F1000254F1000103D525
:1019D000BDE88901BDE80088BDE88901BDE800488F
:1019E000B619524141EB0101A3F101037047808018
:1019F0007F7E7D7C7B7A7978777676757473727169
:101A000071706F6E6E6D6C6C6B6A6A696868676620
:101A100066656464636362616160605F5F5E5E5DB2
:101A20005D5C5C5B5B5A5A59595858575756565526
:101A300055555454535352525251515050504F4F88
:101A40004F4E4E4D4D4D4C4C4C4B4B4B4A4A4A49D8
:101A5000494948484847474747464646454545441B
:101A600044444443434343424242424141410000D3
:101A700046EA0646A3F570534FEA164646EA425632
:101A80004FEAD22242EA415210B54FEAD121A3F1E6
:101A9000010300F02FF820F0004000F1020C00F0EC
:101AA000004701EB00501146BCF5006F40EA07000B
:101AB00000D210BDBAF1000F0AD01CB503B44FF02C
:101AC00004004FF004014FF000000FBCBDE81040CF
:101AD0004FF00001BBF1010FB9BF04484FF0FF31D7
:101AE0000348002140EA070010BD00BFFFFFEF7F61
:101AF0000000F07F002B9C4630D477002BD01CB523
:101B00004FEA370703B44FF010004FF01001BAF15D
:101B1000000F06D0BCF1000FDCBF40F0080040F021
:101B200008014FF000000FBCBDE810400BF1010BA5
:101B3000BBF1010F08BF5FEA170722BF12F10102D4
:101B400011F101014FF0004143F1000300F00040AA
:101B500043EA00007047F9D35708D0E746EA064643
:101B600013F1400F4FEA16461FDD13F1200FDFBFC0
:101B700016430A46002120335B42BED0C3F1200742
:101B800046EA064602FA07F74FEA164646EA07060D
:101B9000C3F1200722FA03F201FA07F721FA03F151
:101BA0004FF0000342EA0702A7E746EA020646EAC8
:101BB00006464FEA164646EA0106BCBF46EA064616
:101BC000360C4FF000034FF000024FF0000194E795
:101BD0002DE9804C9A46934670B491E8380007C8C6
:101BE00031EA400C48BF34EA430C03D5FFF7A3FDAC
:101BF000FFF780FFF0BCBDE8008C2DE9804C9A46D1
:101C0000934670B491E8380007C831EA400C48BFE9
:101C100034EA430C03D5FFF78EFDFFF729FFF0BC34
:101C2000BDE8008C2DE9804C9A46934670B491E84B
:101C3000380007C810F0804F08BF13F0804F03D161
:101C400000F01AF8FFF756FFF0BCBDE8008C2DE954
:101C5000804C9A46934670B491E8380007C810F05B
:101C6000804F08BF13F0804F03D100F005F8FFF755
:101C7000FFFEF0BCBDE8008C20F07F4780EA030047
:101C800023F07F4C07EB0C03A3F57C5300F00040DE
:101C9000A3F1FE0392F0000F00F0B38095F0000F67
:101CA00000F077802DE901494FEA11404FEA1446D0
:101CB00021EA004800FB06FC24EA064708FB06F67A
:101CC00007FB08F800FB07F718EB06484CEB164C2F
:101CD0004FEA124B18EB07484FEA15464CEB1740FA
:101CE00022EA0B4E0BFB06FC25EA06470EFB06F626
:101CF00007FB0EFE0BFB07F71EEB064E4CEB164CDC
:101D00004FF000061EEB074E4CEB174B18EB0B0881
:101D100040F1000018EB0E0B58EB000840F10000FA
:101D20008F1A4FF000013CBFC943661B14BFB5EBCF
:101D3000040C00213CBFC943F61B4FEA17444EEA8E
:101D40008E0E27EA04454FEA1C4704FB07622CEA83
:101D5000074C05FB07F70CFB05F604FB0CFC16EB28
:101D6000074642EB174216EB0C4642EB1C421BEBBC
:101D7000060658EB0202414146EA9E0601D5BDE83F
:101D80000189B619524141EB0101A3F10103BDE8FC
:101D900001894FEA14454FEA114724EA054621EA32
:101DA000074C05FB07F406FB07F70CFB06F105FBE8
:101DB0000CFC11EB074144EB17444FEA124711EBBF
:101DC0000C4144EB1C4422EA074C05FB07F206FBDE
:101DD00007F70CFB06F605FB0CFC16EB074642EB7F
:101DE000174216EB0C4642EB1C456A1854F10001F1
:101DF00048BF7047B619524141EB0101A3F10103FD
:101E0000704795F0000F37D04FEA11424FEA144760
:101E100021EA024624EA074C02FB07F106FB07F71A
:101E20000CFB06F402FB0CFC14EB074441EB1741DE
:101E30004FEA154714EB0C4441EB1C4125EA074CD3
:101E400002FB07F506FB07F70CFB06F602FB0CFC92
:101E500016EB074645EB174516EB0C4645EB1C42C7
:101E6000121951F1000148BF7047B619524141EBB8
:101E70000101A3F1010370474FEA14454FEA1147EE
:101E800024EA054621EA074C05FB07F106FB07F7A4
:101E90000CFB06F24FF0000605FB0CFC12EB0742B0
:101EA00041EB174112EB0C4251EB1C4148BF70470C
:101EB000921841EB0101A3F101037047FEE7000016
:101EC000014800F003BA0000D80A0020014800F0E1
:101ED000FDB900001C0B0020014800F0F7B900001C
:101EE000940A0020014800F0F1B90000500A0020D7
:101EF000014800F0EBB900000C0A0020014800F096
:101F0000E5B90000C809002030B590F84050012420
:101F1000AC40C56B6C60046863604368102B036859
:101F200003D099600068C26030BD9A600068C160EB
:101F300030BD704772B6FEE7624910B50A78624854
:101F4000632A03D063220A700921017001784FF4DB
:101F50007A74491EC9B20170491E09293BD2642313
:101F600001225AA15A4801F044FF05F065FD2346BD
:101F7000392258A1564801F03CFF05F07DFD642050
:101F800004F0C2FE05F058FD2346392251A1504805
:101F900001F02FFF05F070FD642004F0B5FE05F0A0
:101FA0004BFD234614225AA1494801F022FF05F0B7
:101FB00063FD642004F0A8FE05F03EFD23461422D4
:101FC00053A1434801F015FF05F056FD642004F0CD
:101FD0009BFE00F023FD4FF4E13003F0F7FB05F02A
:101FE0002BFD2346112250A1394801F002FF05F0D4
:101FF00043FD642004F088FE05F01EFD23461122F7
:1020000049A1334801F0F5FE05F036FD642004F0E7
:102010007BFE05F011FD234639222EA12C4801F04C
:10202000E8FE05F029FD642004F06EFE05F004FDD5
:102030002346112241A1264801F0DBFE05F01CFDDC
:10204000642004F061FE05F0F7FC2346112236A15E
:102050001F4801F0CEFE05F00FFD642004F054FE91
:1020600005F0EAFC234611222FA1194801F0C1FE18
:1020700005F002FD642004F047FE05F0DDFC234678
:10208000392214A1124801F0B4FE05F0F5FC6420D9
:1020900004F03AFE05F0D0FC2346112227A10C489B
:1020A00001F0A7FE05F0E8FC642004F02DFE05F029
:1020B000C3FC01222649064801F03CFEBDE8104061
:1020C00005F0DABC10BF002000BF00202000000097
:1020D0003809002024504D544B3331342C302C31EE
:1020E0002C302C302C302C302C302C302C302C3010
:1020F0002C302C302C302C302C302C302C302C3000
:102100002C302C302C302C302A33350D0A000000B6
:1021100024504D544B3235312C3131353230302A48
:1021200031460D0A0000000024504D544B3232302D
:102130002C3130302A32460D0A0000002450515410
:1021400058542C572C302C312A32330D0A00000001
:102150003D15002010B590F821100022022905D06D
:102160000421816380F82020012010BD01680B68E4
:1021700023F00E030B6001680B6823F001030B6072
:1021800090F84030C46B012101FA03F3636080F8DA
:10219000211080F82020104610BD00002DE9F05FCE
:1021A00090F821100024022903D004218163012426
:1021B00085E001680A6822F00E020A6001680A6878
:1021C00022F001020A603F4E3E4FB215DFF8F4C024
:1021D000DFF8F090DFF8ECA0DFF8E8B0DFF8E4E03B
:1021E0000168783F13011502ACF1640CA9F15009A4
:1021F000AAF13C0AABF1280BAEF1140E4FF4801893
:10220000B14227D9B9420ED0614512D049451DD0FF
:10221000514518D0594518D0714501D1424615E0B5
:10222000294EB14201D1012210E0274E1436B142AD
:1022300001D110220AE0244E2836B14206D0224AAB
:102240003C32914201D11A4600E02A461E49091F3C
:102250000A602BE0B94213D0614517D0494522D01E
:1022600051451DD059451DD0714501D142461AE056
:10227000B14202D14FF0807215E0134EB14201D14C
:10228000012210E0104E1436B14201D110220AE0B2
:102290000D4E2836B14206D00B4A3C32914201D154
:1022A0001A4600E02A46074980394A60012180F831
:1022B0002110002180F82010416B01B18847204691
:1022C000BDE8F09F80000240080402402DE9F05F65
:1022D000C16B0A6801680B68046C4FF0040808FAC7
:1022E00004F8844D844E854FDFF814C2DFF8149251
:1022F000DFF814A2DFF814B2DFF814E218EA020FD4
:1023000065D05FEA437862D50A68920603D40A680A
:1023100022F004020A60DFF8F0814FF48062016865
:1023200008F1140813011402414524D9A9420DD023
:10233000B1420FD0B9421AD0614515D0494515D0E8
:10234000514501D1120312E0594501D104220EE09A
:10235000714501D140220AE06D4D1435A94206D0E5
:102360006B4A2832914201D11A4600E02246674961
:10237000091F0A6029E0A94213D0B14215D0B94221
:1023800020D061451BD049451BD0514502D14FF4A7
:10239000800217E0414502D14FF0806212E05945BA
:1023A00001D104220EE0714501D140220AE0584DCE
:1023B0001435A94206D0564A2832914201D11A4614
:1023C00000E022464B4908394A60C16A71E04FF08B
:1023D000020808FA04F818EA020F70D05FEA83785E
:1023E0006DD50A68920606D40A6822F00A020A60CD
:1023F000012180F82110DFF810814FF4007201688C
:1024000008F1140813011402414524D9A9420DD042
:10241000B1420FD0B9421AD0614515D0494515D007
:10242000514501D1120312E0594501D102220EE0BB
:10243000714501D120220AE0354D1435A94206D05C
:10244000334A2832914201D11A4600E022462F49F0
:10245000091F0A6029E0A94213D0B14215D0B94240
:1024600020D061451BD049451BD0514502D14FF4C6
:10247000001217E0414502D14FF0007212E05945B9
:1024800001D102220EE0714501D120220AE0204D47
:102490001435A94206D01E4A2832914201D11A466B
:1024A00000E02246134908394A60002180F82010D4
:1024B000816A00291CD0BDE8F05F0847FFE70825C6
:1024C000A540154214D01A0712D50A6822F00E0250
:1024D0000A6090F84020C36B012101FA02F25A60B1
:1024E000816380F82110002180F82010016BE0E763
:1024F000BDE8F09F080002401C000240300002408E
:1025000044000240580002406C00024008040240AF
:102510001C04024030B560B11A4B026814219A4283
:1025200009D2194B1344B3FBF1F189000164174937
:102530000AE0012030BD134B5B421344B3FBF1F1C1
:10254000890001640F490839C163022180F8211014
:10255000136843F6F0718B43F0E901142143D0E98D
:1025600002452C4321430469214344692143846982
:102570002143194311600021416301224277017711
:10258000084630BD08040240F8FFFDBF00000240CD
:1025900070B5044690F82000002501280CD00120D9
:1025A00084F8200094F821600020012E06D084F8E1
:1025B00020000225284670BD022070BD022684F846
:1025C0002160A0632068066826F0010606602046A8
:1025D000FFF79AFCE06A00282068016802D041F009
:1025E0000E0106E021F0040101602068016841F05D
:1025F0000A0101602068016841F001010160D9E72A
:102600002DE9F84FDFF8C8910024A9F1040B234607
:102610000F2709F1040AABF1040ED1E00125A54012
:1026200006EA0502AA4276D1DFF8A8C14E68A6EBF9
:102630000C0866452BD00DDC032E34D005DC36B3F8
:10264000012E19D0022E2FD11BE0112E16D0122EE2
:102650002AD119E0B8F5881F19D006DCB8F5803FFB
:1026600015D0B8F5801F1FD111E0B8F5001F0ED0AE
:10267000B8F5041F18D10AE0CB6815E0CB681B1D24
:1026800012E0CB6808330FE0CB680C330CE08B68AA
:102690002BB1012B4FF0080303D0456104E0042364
:1026A00002E0056100E00023FF2A01D8064601E0B0
:1026B00000F104064FEA840501D9A5F12005D6F8FA
:1026C000008007FA05FC28EA0C0803FA05F548EA39
:1026D0000508C6F800804D68ED0070D53E4DAE6926
:1026E00046F00106AE61AD6924F0030605F0010570
:1026F00000953A4D06EB050CDCF80850A607360F9E
:1027000007FA06F825EA0805DFF8D480404503D12A
:102710004FF0000825E052E0DFF8C880404502D1C4
:102720004FF001081DE0DFF8C080404502D14FF0B6
:10273000020816E0DFF8B480404502D14FF00308EC
:102740000FE0DFF8AC80404502D14FF0040808E00C
:10275000DFF8A080404502D14FF0050801E04FF0BE
:10276000060808FA06F848EA0508CCF808804D681B
:10277000D9F80060ED024D4601D5164300E09643BE
:102780002E604D68DAF80060AD02554601D516435B
:1027900000E096432E604D68DBF80060AD035D46B7
:1027A00001D5164300E096432E604D68DEF80060C8
:1027B000ED03754601D5164300E096432E60641C78
:1027C0000A681646E2407FF429AFBDE8F88F0000A2
:1027D00008040140000011100010024000000140F8
:1027E00000080140000C01400010014000140140AD
:1027F00000180140001C0140C26821EA02030A409F
:1028000043EA0241016170470AB10161704709045E
:10281000FBE7000001488068704700009800002036
:1028200070B5040011D021684CF6CC4008602168D6
:1028300045F255500860D4E9000141602168A06864
:102840008860FFF7E7FF05460DE0012070BD00BF7F
:10285000FFF7E0FF401B272805D92068C0688007E4
:1028600001D0032070BD2068C0688007F0D12168C6
:102870004AF6AA200860002070BD00684AF6AA2126
:10288000016000207047000002488168027811440E
:102890008160704798000020074810B5016841F03A
:1028A00010010160032000F0A7F80F2000F006F8E7
:1028B00000F050F8002010BD0020024030B5054661
:1028C0001F4887B0C16941F01001C161C06906A904
:1028D00000F01000009001A800F048F90498B0B191
:1028E00000F06AF940001749174AB0FBF1F11748A8
:1028F000491E0260416040F2E7320021C0E9032135
:102900008160816100F082FB040003D015E000F0DB
:1029100053F9E8E70D4800F003FC04000DD1362020
:1029200000F03CF8102D07D200222946362000F096
:1029300043F80748056000E0012407B0204630BD99
:102940000010024040420F0000100040600B0020C9
:102950009C0000200F4808B5816941F001018161A8
:10296000816901F001010091C16941F08051C161AB
:10297000C069002200F0805000900F21901E00F0EE
:102980001BF80548416821F0E06141F000714160A9
:1029900008BD00000010024000000140002809DBD3
:1029A00000F01F02012191404009800000F1E02069
:1029B000C0F8001170470000F0B40E4B1B680C46C5
:1029C000C3F30223C3F10705042D00D90425191D03
:1029D000072901D2002300E0DB1E012606FA05F1DB
:1029E000491E214099409E40761E16403143F0BC5E
:1029F00002F01CBF0CED00E0064900F00702086879
:102A00004FF6FF03184040EA0220034A10430860D3
:102A1000704700000CED00E00000FA05BFF34F8F97
:102A200005480168054A01F4E06111430160BFF304
:102A30004F8F00BFFDE700000CED00E00400FA0539
:102A40002DE9F0470F46050061D0434E306800F095
:102A50000700B84209D2306820F0070038433060E0
:102A6000306800F00700B84251D128683B4C81071C
:102A700012D5400703D5606840F4E06060602878B4
:102A8000000703D5606840F4605060606068A96822
:102A900020F0F000084360602878C00728D06868FC
:102AA000012810D02168022810D0890700292EDAC9
:102AB000616821F0030101436160FFF7ABFE8046CE
:102AC00041F288390DE021688903EFE78901EDE7DC
:102AD000FFF7A0FEA0EB0801494502D90320BDE89D
:102AE000F0876068696800F00C00B0EB810FEFD1EF
:102AF000306800F00700B8420BD9306820F00700BA
:102B000038433060306800F00700B84201D001203F
:102B1000E5E72878400705D56068E96820F4E060BB
:102B2000084360602878000706D56068296920F4AA
:102B3000605040EAC100606000F05EF86168084AD9
:102B4000C1F30311515CC84006490860064800689B
:102B5000FFF7B4FE0020C2E7002002400010024050
:102B60006AA20008A40000209C0000200F2202603E
:102B70000C4A536803F003034360536803F0F00307
:102B80008360536803F4E063C36052684FF4E0630A
:102B900003EAD20202610448006800F007000860FE
:102BA0007047000000100240002002400148006809
:102BB00070470000A40000200448054900684968E7
:102BC000044AC1F30221515CC8407047A4000020B0
:102BD000001002407AA200080448054900684968CC
:102BE000044AC1F3C221515CC8407047A4000020D0
:102BF000001002407AA200080E4A51680E4801F007
:102C00000C03042B11D0082B0FD10C48C1F38343C4
:102C1000C903C05C0AD55168084AC1F34041921EFD
:102C2000515C054A5043B0FBF1F0704704494843FA
:102C3000704700000010024000127A005AA20008FB
:102C400000093D002DE9F84F040070D02078C04DF8
:102C5000C00749D06868C0F38100012807D06868C0
:102C6000C0F38100022809D16868C00306D528682E
:102C7000800339D560680028E7D035E06068B0F59A
:102C8000803F0BD010B1B0F5A02F11D0286820F4F0
:102C900080302860286820F4802002E0286840F412
:102CA00080302860606890B1FFF7B4FD06460AE006
:102CB000286840F480202860F0E700BFFFF7AAFDF5
:102CC000801B642873D828688003F7D50CE0FFF7D1
:102CD000A1FD064605E000BFFFF79CFD801B6428B0
:102CE000F0D828688003F7D420789A4E80074FF0F8
:102CF00001094FF0000839D5686810F00C0F07D0B3
:102D00006868C0F38100022809D16868C00306D44E
:102D10002868800714D52069012808D110E02069AF
:102D2000B0B1C6F80090FFF775FD074605E00AE16F
:102D3000FFF770FDC01B0228C4D828688007F7D5AC
:102D40002868616920F0F80040EAC10028600DE0C1
:102D5000C6F80080FFF75EFD074604E0FFF75AFD66
:102D6000C01B022823D828688007F7D420780007E2
:102D70002CD57948A169D9B1C0F80090FFF74AFD78
:102D8000074604E0FFF746FDC01B02280FD8686A1B
:102D90008007F7D571484FF4FA510068B0FBF1F0A5
:102DA000009000BF0098411E0091FAD20EE080E032
:102DB000C0F80080FFF72EFD074604E0FFF72AFD6C
:102DC000C01B022875D8686A8007F7D420784007AE
:102DD00060D5E8690027C00008D4E86940F0805059
:102DE000E861E869012700F0805000905C480168C4
:102DF000C90513D40168834641F480710160FFF76F
:102E000009FD824606E000BFFFF704FDA0EB0A00C3
:102E100064284ED8DBF80000C005F5D5E06801282D
:102E20000AD008B1052813D0286A20F001002862D2
:102E3000286A20F0040002E0286A40F001002862BD
:102E4000E06841F2883B98B1FFF7E4FC82460BE072
:102E5000286A40F004002862EEE700BFFFF7DAFCC2
:102E6000A0EB0A0159455AD8286A8007F6D50CE02C
:102E7000FFF7D0FC824605E0FFF7CCFCA0EB0A018F
:102E800059454CD8286A8007F6D41FB1E86920F06C
:102E90008050E861E06988B36968C1F38101022963
:102EA00044D00228C6F8608004D0FFF7B3FC044683
:102EB00038E034E0FFF7AEFC074604E0FFF7AAFC79
:102EC000C01B02282BD828688001F7D4206AB0F5EF
:102ED000803F05D16868A16820F40030084368602D
:102EE000D4E908010843696821F474110843686053
:102EF000C6F86090FFF78EFC044606E025E000BFB0
:102F0000FFF788FC001B022809D828688001F7D544
:102F10001BE000BFFFF77EFC001B022802D9032044
:102F2000BDE8F88F28688001F4D40EE00128F7D0BE
:102F30006868226A00F48031914204D1616A00F429
:102F40007010884201D00120EAE70020E8E7000085
:102F5000001002400000424280044242A4000020CF
:102F60000070004010B5401EB0F1807F01D30120F9
:102F700010BD4FF0E02460610F21601702F056FC95
:102F80000020A06107202061002010BD704770471D
:102F900070B590F83C20012A2CD0012480F83C40E8
:102FA000022280F83D2003685A689D6822F070066E
:102FB0000A6832435A60104B02689A420ED00F4B97
:102FC0009A420BD0B2F1804F08D00D4B9A4205D0F7
:102FD0000C4B9A4202D00C4B9A4204D1496825F01E
:102FE00080031943916080F83D40002180F83C1037
:102FF000084670BD022070BD002C01400034014025
:103000000004004000080040000C004010B504001F
:1030100003D094F83D0010B107E0012010BD00205E
:1030200084F83C00204600F01FF8022084F83D00A0
:10303000211D206801F0FCFD012084F8460084F881
:103040003E0084F83F0084F8400084F8410084F892
:10305000420084F8430084F8440084F8450084F872
:103060003D00002010BD000000B585B0002100919A
:10307000019102910391254A0168254891421ED190
:10308000C16941F00201C161C16901F0020104910D
:10309000816941F0080181618069694600F008009A
:1030A000049001200090022002901A48FFF7A8FA2D
:1030B000002205211D20FFF77FFC1D2010E0164A8D
:1030C000914211D1C16941F00401C161C06900227E
:1030D00000F0040004900C211E20FFF76DFC1E2060
:1030E000FFF75CFC05B000BD0C4A9142FAD1C16902
:1030F00041F02001C161C069002200F0200004906D
:103100000B213720FFF758FC3720E9E70004004087
:1031100000100240000C0140000800400014004074
:1031200090F83D10012901D001207047022180F85C
:103130003D100168CA6842F00102CA6000680E4989
:1031400088420ED00D4988420BD0B0F1804F08D094
:103150000B49884205D00B49884202D00A4988426F
:1031600004D1816801F00701062903D0016841F00C
:103170000101016000207047002C01400034014033
:103180000004004000080040000C004070B50446F8
:1031900090F83C000025012817D0012684F83C60F7
:1031A000022084F83D002068826822F0770222F431
:1031B0007F4282600868502838D00DDC20284FD02C
:1031C00005DC90B3102811D14AE0022070BD3028F0
:1031D00046D040280AD13BE060282FD070280DD07F
:1031E000B0F5805F03D0B0F5005F12D0012584F800
:1031F0003D60002084F83C00284670BDCB68D1E9D2
:103200000121206801F067FD2068816841F07701A5
:1032100009E0CB68D1E90121206801F05CFD20685C
:10322000816841F480418160E1E719E0CA6849683A
:10323000206801F062FD5021206806E0CA684968F4
:10324000206801F0A1FD6021206801F04EFDCEE76D
:10325000CA684968206801F050FD40212068F4E701
:10326000226801461046F0E770B5214DA84223D1EF
:10327000204C012220492078002610B101280DD0D1
:1032800034E022700868A0802868016A21F4007187
:1032900001622868016A41F4007126E0267008681E
:1032A00080B2E0800E60144918390E60A18888420F
:1032B00003D24FF4FA60608070BD401A80B2608023
:1032C00040F257230D49A0F2A560984201D20A703E
:1032D00004E00B480E70006803F042FD2868016AA4
:1032E00021F4007101622868016A0162667070BD94
:1032F000D0070020840000203C0400400000002093
:10330000280000202DE9F041054690F83C000026F9
:103310000C46012810D0012085F83C0072B1042A27
:103320001CD0082A2CD00C2A50D00126002085F869
:103330003C003046BDE8F0810220FBE7D4E90012F2
:10334000E368286801F0EAFC2868816921F00C0133
:10335000816128688169A26811430FE0D4E90012F5
:10336000E368286801F022FD2868816921F4406142
:10337000816128688169A26841EA02218161D5E7FB
:103380002868D4E9002C277B036A016A21F4807144
:103390000162C16923F4007321F0030141EA0C01C9
:1033A00021F0F00C39074FF400774CEA116107EA7D
:1033B00002221A43C16102622868C16921F00C012E
:1033C000C1612868C169A26811432BE02868D4E96B
:1033D0000021E768036AD0F820C02CF4805CC0F8B4
:1033E00020C0D0F81CC023F400532CF4407C4CEADD
:1033F000012121F4704C4FF6FF7101EA07314FF4BF
:10340000005741EA0C0107EA02321A43C161026225
:103410002868C16921F44061C1612868C169A26856
:1034200041EA0221C16181E710B5040003D094F89C
:103430003D0010B107E0012010BD002084F83C00E1
:10344000204600F01EF8022084F83D00211D20686F
:1034500001F0EEFB012084F8460084F83E0084F879
:103460003F0084F8400084F8410084F8420084F86A
:10347000430084F8440084F8450084F83D000020AF
:1034800010BD704730B50446002551B104290DD058
:10349000082910D094F8412094F84500012A11D150
:1034A0000EE094F83E2094F84200F7E794F83F20AD
:1034B00094F84300F2E794F8402094F84400EDE7D4
:1034C000012801D0012030BD022059B1042912D0B9
:1034D000082919D084F8410084F845000C293ED011
:1034E00001253AE084F83E0084F842002068C26872
:1034F00042F0020210E084F83F0084F843002068A4
:10350000C26842F0040207E084F8400084F84400F6
:103510002068C26842F00802C2600122206801F0FF
:10352000CDFB1149206888420ED0104988420BD04B
:10353000B0F1804F08D00E49884205D00D4988422D
:1035400002D00D49884204D1816801F007010629A3
:1035500003D0016841F001010160284630BD2068B8
:10356000C26842F01002D7E7002C0140003401404D
:103570000004004000080040000C004070B5044604
:10358000006801694FF00005C943890715D4C16877
:10359000C943890711D4E91E016101202077206801
:1035A00080698007204602D0FFF75EFE04E000F04D
:1035B00098F8204600F096F8257720680169C943FD
:1035C000490717D4C168C943490713D46FF00401F0
:1035D0000161022020772068806910F4407F204636
:1035E00002D0FFF741FE04E000F07BF8204600F037
:1035F00079F8257720680169C943090716D4C1689D
:10360000C943090712D46FF0080101610420207733
:103610002068C0698007204602D0FFF725FE04E03D
:1036200000F05FF8204600F05DF82577206801691A
:10363000C943C90617D4C168C943C90613D46FF07A
:1036400010010161082020772068C06910F4407FD4
:10365000204602D0FFF708FE04E000F042F82046C2
:1036600000F040F8257720680169C943C90708D1EF
:10367000C168C943C90704D1891E0161204600F011
:1036800033F820680169C943090609D4C168C943F0
:10369000090605D46FF0800101612046FFF776FC32
:1036A00020680169C943490609D4C168C94349066C
:1036B00005D46FF040010161204600F033F8206826
:1036C0000169C94389060BD4C168C943890607D477
:1036D0006FF0200101612046BDE87040FFF757BC44
:1036E00070BD70477047000010B5044600680A4975
:1036F000884201D1FFF7C8F808492068884201D103
:1037000001F076FA06492068884203D1BDE81040EE
:1037100001F04ABA10BD0000001000400014004043
:10372000000800407047704710B5044600684069C3
:1037300094F84110C0F3C010212911D180B1206844
:10374000143050E8001F21F0800140E80012002AE8
:10375000F5D1A06B08B1FEF7FDFC204601F020FD7D
:103760002068406994F84210C0F38010222911D1DA
:1037700080B12068143050E8001F21F0400140E87B
:103780000012002AF5D1E06B08B1FEF7E3FC2046F9
:1037900001F0DFFC002010BD70470000F8B50168A3
:1037A00004460868CA684B6910F00F0F4FF0000517
:1037B00059D003F0010602F49077374365D0C10772
:1037C00005D0D10503D5616C41F001016164410769
:1037D00005D5D90703D0616C41F00201616481070E
:1037E00005D5D90703D0616C41F00401616401077C
:1037F00007D502F02001314303D0616C41F008018C
:103800006164616C00293AD0800604D5900602D527
:10381000204601F0D3FC20684069616CC0F3801041
:10382000090700D460B3204601F093FC206840698A
:10383000400621D52068143050E8001F21F04001D7
:1038400040E80012002AF5D1E06BA8B16D49416350
:10385000E06BFEF7A3FC002811D0E06B416B01B0D8
:10386000BDE8F040084783060FD593060DD52046E6
:10387000BDE8F84001F0A2BC2046FFF78DFFF8BD7F
:103880002046FFF789FF6564F8BD266B2023012ED3
:103890007CD1C6067AD5D60678D5086848680090E7
:1038A00048694FF00206400640D5E16B0868406861
:1038B0000004000CE8D0A28D8242E5D9E085886939
:1038C00020282DD020680C3050E8001F21F4807192
:1038D00040E80012002AF5D12068143050E8001F9B
:1038E00021F0010140E80012002AF5D120681430CF
:1038F00050E8001F21F0400140E80012002AF5D1F5
:1039000084F84230256320680C3050E8001F21F015
:10391000100140E80012002AF5D1E06BFEF71AFC16
:103920006663A08DE18D401A81B22AE0A08DE18D01
:10393000401A81B2E08D0028A6D00029A4D02268C8
:103940000C3252E8000F20F4907042E80007002F7C
:10395000F5D12068143050E8002F22F0010240E831
:103960000027002FF5D184F84230256320680C3001
:1039700050E8002F22F0100240E80023002BF5D180
:1039800066632046FFF7CFFEF8BDFFE705062BD59F
:10399000150629D594F841002128F5D1A068B0F585
:1039A000805F01D12069B0B1206A411C2162216889
:1039B00000784860E08C401E0004000CE084E3D1F5
:1039C0002068C16821F08001C1602068C16841F0B1
:1039D0004001C160D8E7206A0088C0F30800486051
:1039E000206A801C2062E5E74006CDD55006CBD585
:1039F000CA68204622F04002CA6084F8413000F0D4
:103A000081FAC1E70950000870B5040004D094F8A9
:103A10004100002510B106E0012070BD84F840503F
:103A2000204600F023F8242084F841002068C16873
:103A300021F40051C160204601F022FC2068016998
:103A400021F4904101612068416921F02A0141611E
:103A50002068C16841F40051C1606564202084F889
:103A6000410084F842006563002070BD2DE9F04FED
:103A700085B0002500950195029503950446DFF871
:103A800068C20368994802210322012780264FF467
:103A900080694FF4006B4FF0100A63454DD1C36944
:103AA00043F40023C361C36903F4002304938369CF
:103AB00043F0100383618069CDE9009100F01000AC
:103AC000CDE90320DFF8288269464046FEF798FDDD
:103AD000CDF800B0CDE9015769464046FEF790FDAC
:103AE000854F8448C7E902563D617D61BD61FD6136
:103AF000C7E9000A3846FEF70DFD08B1FEF71AFACD
:103B0000A7637C627C4F7B4844372838C7E90005AF
:103B1000C7E902563D617D61BD613846FD61FEF732
:103B2000F9FC08B1FEF706FAE7630022072134200A
:103B30007C62FEF741FF342053E0DFF8C0C1DFF8BC
:103B4000C081634552D1836943F4804383618369B3
:103B500003F480430493836943F004038361806921
:103B6000039200F0040004904FF40070CDE90001CE
:103B700069464046FEF744FDCDF80090CDE9015777
:103B800069464046FEF73CFD5B4F5E488837C7E913
:103B90000005C7E902563D617D61BD613846FD61A2
:103BA000FEF7B8FC08B1FEF7C5F9E7637C62524F37
:103BB0005448CC371438C7E902563D617D61BD6178
:103BC000FD61C7E9000A3846FEF7A4FC08B1FEF71C
:103BD000B1F9A76300220A2125207C62FEF7ECFEE2
:103BE0002520FEF7DBFE05B0BDE8F08FDFF818C139
:103BF000634525D1C36943F40033C361C36903F44A
:103C000000330493836943F0040383618069039262
:103C100000F0040004900420CDE90001694640460C
:103C2000FEF7EEFC08208DE8A10069464046FEF74D
:103C3000E7FC002206212620FEF7BEFE2620D0E764
:103C4000DFF8C8C06345CED1C36943F48023C361A4
:103C5000C36903F480230493836943F008038361F9
:103C60008069CDE9009100F00800CDE90320DFF87C
:103C7000A08069464046FEF7C3FCCDF800B0CDE910
:103C8000015769464046FEF7BBFC224F1D48C7E975
:103C900002563D617D61BD613C38FD61C7E9000AA6
:103CA0003846FEF737FC08B1FEF744F9A7637C629B
:103CB000184F144844372838C7E90005C7E90256A9
:103CC0003D617D61BD613846FD61FEF723FC08B1B1
:103CD000FEF730F9E7630022092127207C62FEF716
:103CE0006BFE27207DE70000004C004000100240E2
:103CF0000010014058040240C8090020003801406B
:103D000000080140580002400044004000480040C4
:103D1000000C0140D80A002090F84230202B01D03E
:103D20000220704721B11AB10023036301F004BBE4
:103D30000120704790F84230202B01D002207047BC
:103D400021B11AB10023036301F03EBB012070478B
:103D500070B500682049884223D15020EFF31181CB
:103D600080F31188BFF34F8FBFF36F8F1B4C1C483C
:103D7000216090F8C81090F89121431E425490F8A9
:103D8000C810CB5C0D2B01D10A2A0BD0491C80F83E
:103D9000C810012213491448FFF7CCFF206880F3B4
:103DA000118870BDC1780022522911D101794D29A5
:103DB0000ED100210D4D06E0435C46186B54491CA2
:103DC00086F8C920C9B290F8C8305B1E8B42F3DC7C
:103DD00080F8C820DDE7000000440040900000208B
:103DE000AC1300203D15002038090020641200208B
:103DF00070472DE9F843044690F841001F461646E7
:103E00000D46202802D00220BDE8F8837DB176B1AE
:103E100000206064212084F84100FEF7FBFCA684AA
:103E20008046E684A068B0F5805F02D003E0012000
:103E3000EAE7206910B12E4600250EE000260CE0CE
:103E40008021204601F0DBFAA0B9AEB116F8010BD3
:103E500021684860E08C401EE084E08C43464FF0CF
:103E6000000200970028EBD14FF04001204601F0FE
:103E7000C6FA30B10320C7E735F8020BC0F30800DB
:103E8000E6E7202084F841000020BDE770B5044635
:103E900090F84100202801D0022070BD49B342B300
:103EA0002162A284E28400206064212384F84130EE
:103EB000A56B114BAB62A56B104BEB62A56B104B66
:103EC0002B63A36B5863256813462A1DA06BFEF76E
:103ED0005FFB21686FF0400008602068143050E8F4
:103EE000001F41F0800140E80012002AF5D10020B7
:103EF00070BD012070BD0000075100084951000845
:103F00001950000870477047FEE70000214808B5C7
:103F1000416941F001014161416901F001010091F4
:103F2000416941F0020141614069002200F0020054
:103F3000009005210C20FEF73FFD0C20FEF72EFD22
:103F4000002205210D20FEF737FD0D20FEF726FD8E
:103F5000002205210E20FEF72FFD0E20FEF71EFD8C
:103F6000002205210F20FEF727FD0F20FEF716FD8A
:103F7000002205213A20FEF71FFD3A20FEF70EFD34
:103F8000002205213B20FEF717FDBDE808403B203D
:103F9000FEF704BD0010024030B59FB004F052F8A7
:103FA000264C00250121A060159515A8169502F054
:103FB000B7FEE0611795012117A8189502F0B0FE31
:103FC00020621995012119A81A9502F0A9FE6062D4
:103FD0001B9501211BA81C9502F0A2FE1849A062A6
:103FE0000022D1E90001CDE91D0111461DA802F012
:103FF0005BFF1349A0611C2208316846FCF79AFB5D
:104000000021684602F006FF0D49E0601C222431C1
:1040100007A8FCF78FFB002107A802F0FBFE084968
:1040200020611C2240310EA8FCF784FB00210EA861
:1040300002F0F0FE60611FB030BD000004000020FF
:10404000B8A100082DE9F04786B00026394800964F
:10405000019602960396816941F0100181618169A0
:1040600001F010010491816941F0200181618169B1
:1040700001F020010491816941F0040181618169AD
:1040800001F004010491816941F0080181618069B6
:10409000DFF8A48000F00800049000224FF40851DB
:1040A0004046FEF7B1FB012204214046FEF7ACFB7F
:1040B000DFF888904FF4A077002239464846FEF793
:1040C000A3FBDFF87CA000224FF490515046FEF78E
:1040D0009BFB012442F20420CDE90004032569463C
:1040E0004046CDE90245FEF78BFA02200094CDE967
:1040F000016069464846FEF783FACDE900746946D7
:104100004846CDE90245FEF77BFA2003CDE90004DD
:1041100069465046CDE90245FEF772FA6002039502
:104120008DE8510069465046FEF76AFA06B0BDE8D0
:10413000F08700000010024000100140000801401C
:10414000000C01407047000010B58AB000242348DD
:104150000494059406940794089409940094019497
:1041600002941D49039401604721C0E901144FF6F0
:10417000FF71C0E9031480218161FEF747FF08B198
:10418000FDF7D8FE4FF48050049004A91348FEF7C1
:10419000FDFF08B1FDF7CEFE1048FFF745F908B165
:1041A000FDF7C8FE089408A90C480994FEF7F0FE34
:1041B00008B1FDF7BFFE0120CDE9004002940822BE
:1041C000694606480394FFF79DF8002801D0FDF7E3
:1041D000B1FE0AB010BD000000040040D00700206E
:1041E00010B586B0002417480094019402940394FB
:1041F00004941349059401604721C0E9011442F277
:104200000F71C0E9031480218161FEF7FFFE08B140
:10421000FDF790FE4FF48050009069460948FEF784
:10422000B5FF08B1FDF786FE049404A9054805947E
:10423000FEF7AEFE002801D0FDF77CFE06B010BDF3
:1042400000080040180800201CB500240E48009407
:104250000C49019401604721C0E9011442F20F7139
:104260008461C160FEF7D2FE08B1FDF763FE0094E1
:10427000694605480194FEF78BFE002801D0FDF742
:1042800059FE1CBD00140040600800200C4810B509
:104290000A4901604FF4E1314160002181600C2244
:1042A000C160C0E904128161C161FFF7ADFB002864
:1042B00003D0BDE81040FDF73DBE10BD004C0040EE
:1042C000A80800200C4810B50A4901604FF4E131FC
:1042D0004160002181600C22C160C0E9041281614B
:1042E000C161FFF791FB002803D0BDE81040FDF746
:1042F00021BE10BD00380140F00800200C4810B568
:104300000A4901604FF416514160002181600C227E
:10431000C160C0E904128161C161FFF775FB00282B
:1043200003D0BDE81040FDF705BE10BD00440040BD
:10433000380900200C4810B50A4901604FF4E131FA
:104340004160002181600C22C160C0E904128161DA
:10435000C161FFF759FB002803D0BDE81040FDF70D
:10436000E9BD10BD0048004080090020FEE7FEE7DF
:104370002DE9FF5F86B006460020DDE914898B46F3
:104380000546741E04904BE00BEB05118A46D1E9FB
:10439000020142464B4605F0A1FA01D2012700E096
:1043A00000270BEB04144246D4E902014B4605F00A
:1043B00095FA01D2012000E0002087422ED0DAE9F0
:1043C00002730093D4E902013A4605F0AFFBCDE950
:1043D00002013A4640464946009B05F0A7FBCDE95D
:1043E0000001DAE90023D4E9000192461F4605F0F6
:1043F0009DFBDDE9002305F073F9DDE9022304F0FC
:1044000017FF52463B4604F057FEDDE9082305F04E
:1044100065FA03D2049880F0010004902C466D1CCC
:10442000B542B1DB04980AB0BDE8F09F70470000C8
:1044300010B52148B0B00DF1480C0179C4798379E9
:1044400042798CE81E004278C37881780078CDE903
:104450000E021A48CDE9101301790DF1280CC47928
:10446000837942798CE81E004378C278817800789D
:10447000CDE906031248CDE9081201790DF1080CC7
:10448000C479837942798CE81E00C2788178CDE9BD
:104490000012437802780B4916A8FBF71DFF16A8F7
:1044A000FCF799F882B24FF47A7316A90648FFF721
:1044B000A0FC30B010BD00007B0000207300002085
:1044C0006B0000208CA50008A808002070B50E49DC
:1044D000EB220E4D0A704870D12088709020C87071
:1044E0000122140321462846FEF78EF94FF4FA7391
:1044F000042205490648FFF77CFC21462846BDE812
:1045000070400022FEF780B9370F0020000C0140F8
:104510008009002070B50E4BEB240E4D1C705870B6
:104520009A70D970902001221871140321462846F0
:10453000FEF76AF94FF4FA73052205490648FFF7BA
:1045400058FC21462846BDE870400022FEF75CB9C1
:104550002D0F0020000C0140800900202DE9F047BC
:10456000834CEB20834D207001206870824A00202C
:104570006978531813F8016D6654491CC9B2187054
:1045800069700829F4D909217C4A6970C9B25318A5
:1045900013F8096D6654491CC9B218706970102966
:1045A000F4D91121764A6970C9B2531813F8116D04
:1045B0006654491CC9B2187069701829F4D9714839
:1045C000714E0778B6F83691002F2CD0A868607627
:1045D0004FEA1021A1764FEA1041E1764FEA1060D0
:1045E000207708D196F82C01607796F82D01A077F6
:1045F00096F82E01E07768884FEA102184F82010A1
:1046000084F8210012D196F82F0184F8220096F840
:10461000300184F8230096F8310184F824004846DC
:1046200005F00EF804E0D6F83C01D0E7D5E9040126
:1046300084F825004FEA102284F826204FEA104221
:1046400084F827204FEA106084F8280084F82910A5
:104650004FEA112084F82A004FEA114084F82B0019
:104660004FEA116084F82C004748B0F832018046C8
:10467000EFB3D5E9060100BF84F82D004FEA102200
:1046800084F82E204FEA104284F82F204FEA106061
:1046900084F8300084F831104FEA112084F8320099
:1046A0004FEA114084F833004FEA116084F8340077
:1046B000EFB3D5E9080100BF84F836004FEA1022B5
:1046C00084F837204FEA104284F838204FEA10600F
:1046D00084F8390084F83A104FEA112084F83B003E
:1046E0004FEA114084F83C004FEA116000E02FE0EF
:1046F00084F83D007FB3D5E90A0100BF04F83E0FFE
:104700004FEA102262704FEA1042A2704FEA106026
:10471000E07021714FEA112060714FEA1140A071E1
:104720004FEA1160E0714FF04F00207200E013E09B
:104730004FF04B0060724FF09000A072BDE8F04760
:1047400040F24B434FF0490209491048FFF751BB73
:1047500004F076FF90E707E096F8440184F835000E
:10476000484604F06DFFA7E7404604F069FFC5E73F
:10477000A80B0020300000206B00002073000020F8
:104780007B0000208C00002064120020F008002034
:104790009EB0DFF8148202214446D8F8080003F0E6
:1047A0005FFC0021206A02F003FB002845D17F4D09
:1047B0007F4C4FF0C109461C2E702178C140C807BC
:1047C00001D0677800E0002703F036F984F8029002
:1047D0004A4639462878FFF79DFE052002F094FAF4
:1047E000A27839462878FFF795FE052002F08CFA6A
:1047F000A27839462878FFF78DFE052002F084FA6A
:10480000A27839462878FFF785FE052002F07CFA69
:10481000A27839462878FFF77DFE052002F074FA69
:10482000A27839462878FFF775FE052002F06CFA69
:1048300003F022F9F0B20428BDD300214446D8F891
:104840001C0002F0B5FA40B95A4802F07BFB03F0B5
:10485000F3F8FFF783FE03F00FF90021A06A02F0DE
:10486000A7FA402254490CA8FBF764FF5348FEF70F
:1048700079FB03F0E1F84FF0E02B0021CBF81810A2
:104880004F49D1E9000101F09FFF0E464D49054611
:10489000D1E9000101F098FF074600200DF17008F2
:1048A0000DF12809CDE902000C46CDE904984749ED
:1048B0004548CDE900013A4623462846314601F0F5
:1048C000E1FEDDE90A01CDE90001DDE91C230CA9C7
:1048D0006420FFF74DFDDFF8D0A000210AF1040AA3
:1048E0003A468AF80000CDE902113A493848CDE944
:1048F0000001CDE9049823462846314601F0C2FE66
:10490000DDE90A01CDE90001DDE91C230CA96420E1
:10491000FFF72EFD8AF80100002002AA0146CDF81B
:10492000148082E803022D492B48CDE900013A4664
:1049300023462846314601F0A5FEDDE90A01CDE90E
:104940000001DDE91C230CA96420FFF711FD8AF8A2
:1049500002000021CDE9021122482149CDE90010D1
:10496000CDE904983A4623462846314601F08AFEAE
:10497000DDE90A01CDE90001DDE91C230CA9642071
:10498000FFF7F6FC8AF80300DBF81800FEF70EF9D3
:104990004FF47A71B0FBF1F0FEF7E4FA03F06CF833
:1049A000012002F0B1F9F4E60400002068000020C4
:1049B000340000206412002018A2000840420F00BA
:1049C0004800002040000020EC51B81E85EBC13F9C
:1049D00052B81E85EB51D83F7B14AE47E17AE43FD5
:1049E000295C8FC2F528EC3F08B5084D4FF0FF3425
:1049F000012300941A460321A86803F077FBC04303
:104A00008007F5D10248FDF738FFF1E704000020E8
:104A1000C40700202D4C206902F040FAFDF78CFA03
:104A2000206902F021FA08212948FEF72BFD2848C9
:104A30000068C16841F00101C16027482549016053
:104A40000421416040F253718160FDF7E9FE08B135
:104A5000FDF770FADFF88480214EDFF888B04FF060
:104A600085454FF0000901274FF4007A0121A06825
:104A700003F0F6FAD8F8000005F042F91A4A1B4B89
:104A800004F02EFE04F0E6FA314605F065F9184907
:104A900005F044FA174905F05FF9A84200DD284601
:104AA00005F01CFAC0B200F09DF951465846FDF7DA
:104AB000A3FE012251031048FDF7A6FE2770A4F8BB
:104AC0000290012002F020F9D0E70000040000204D
:104AD000D007002000300040C4070020380000202C
:104AE000CDCCCC3D000C01402EFF21FDF675E03F02
:104AF0000000F841000020410010014010B5502096
:104B000080F31188BFF34F8FBFF36F8F04F00AF863
:104B100018B104494FF080500860002080F31188DC
:104B200010BD000004ED00E030B58FB028216846CC
:104B3000FBF754FE14210AA8FBF750FE09200121BF
:104B400000904FF48030002404910691CDE90104D7
:104B50000225CDE907504FF4E01009906846FEF7B2
:104B600071F808B172B6FEE70F20CDE90A054FF4DF
:104B70008060CDE90C4002210AA80E94FDF760FF89
:104B8000002801D072B6FEE70FB030BD70470000BC
:104B90000148FEF7F3BC0000D00700200148FEF7F3
:104BA000EDBC00001808002008488178491CC9B2F3
:104BB0008170502909D100218170054800780128B1
:104BC00003D10448006802F0CBB87047940000207D
:104BD00030000020200000200148FEF7CFBC00007C
:104BE000600B00200148FEF7C9BC000060080020EF
:104BF0000D4810B50178491CCAB200210270642A20
:104C000004D10A4B01701A88521C1A804278521C37
:104C1000D2B24270142A02D14170FFF709FCBDE8FC
:104C20001040FFF703BC0000940000203200002079
:104C3000F0B502681C4B1D4D1D4E1E4F1E4C4FF013
:104C4000804C984209D0A04207D0604505D0A842C8
:104C500003D0B04201D0B84204D122F0700E4A68AD
:104C600042EA0E02984209D0A04207D0604505D022
:104C7000A84203D0B04201D0B84203D122F440751B
:104C8000CA682A434D6922F080022A4302608A687A
:104C9000C2620A688262984201D0A04201D10969C9
:104CA000016301214161F0BD002C0140000400407E
:104CB00000080040000C00400034014010B501F035
:104CC0001F030121046A99408C430462016A9A40DF
:104CD0001143016210BD10B5846842EA032224F436
:104CE0007F440A432243826010BD826822F0700232
:104CF0000A4342F007018160704710B5036A046AF5
:104D000024F001040462846924F0F00444EA0214EB
:104D100023F00A020A438461026210BD70B5056A7D
:104D2000046A24F0010404628469124EB0420ED079
:104D3000114EB0420BD0B0F1804F08D00F4EB042B0
:104D400005D00F4EB04202D00E4EB04203D124F037
:104D50000304144301E044F001041A0724F0F004B2
:104D600044EA126225F00A0301F00A011943826144
:104D7000016270BD002C014000340140000400407D
:104D800000080040000C004010B5036A046A24F0DB
:104D900010040462846923F0A00324F4704444EAFC
:104DA000023243EA01118261016210BD30B5046A2A
:104DB000056A25F010050562856925F4407545EA08
:104DC000022222F470454FF6FF7202EA033224F009
:104DD000A0032A43A02404EA01111943826101625D
:104DE00030BD00002DE9F0410025154E154C8046E0
:104DF0002F466D1C257002F01FFEC122414620780F
:104E0000FFF788FB02F038FE02F016FE2078FFF76D
:104E10005DFB02F031FE012001F076FF30780128C1
:104E20000BD06078401CC0B260706428F3D167700A
:104E3000EDB2042DDDD3BDE8F0813770F8E7000056
:104E4000410F002068000020F8B55F480068016845
:104E5000C943C9066FD401680025406800905A48CC
:104E6000FEF762FC594800684068594CC0F1C80020
:104E7000C6B284F8C860C82104F29110FBF78CFC1C
:104E80002146324601F29110FBF70FFC2078EB2807
:104E90001AD0504952282ED045282FD04E4D4FF4CD
:104EA000FA7641282CD047283DD073283FD0662879
:104EB00042D0632844D0752849D06D284ED075283B
:104EC00053D0432858D068E0A078C12801D0C22828
:104ED00063D12179902960D13E49E278091D4A7059
:104EE00062780A7088703D480078F8B93C480068DC
:104EF00001F036FF51E0012008704EE00D704CE0EB
:104F00006078542849D1C8213648FBF745FC354A1A
:104F100035A1C83A3348FBF7DFF93248FBF75BFBB2
:104F200082B2304932E0607850282BD035E060788A
:104F3000612827D031E046E06078722822D02CE04A
:104F400060786F2829D1A0786E281BD025E0607882
:104F50006E2822D1A0786C2814D009E060786128EE
:104F60001BD1A07873280DD017E060786E2814D17B
:104F7000A0786D2806D010E060784F280DD1A07879
:104F80004E280AD1174994F8C820C8391848FEF7A6
:104F90007DFF3146286801F0A7FF0D49C82201F1C5
:104FA000C9000446FBF781FBC8210948FBF7F4FB65
:104FB000C8212046FBF7F0FBBDE8F840C8220449B1
:104FC0000148FEF7A9BEF8BDF0080020500A0020F5
:104FD0000C0C0020300000201C00002000000020ED
:104FE00024000020650E00202573344700000000D7
:104FF000A808002010B50348FEF7D0FBBDE810401C
:1050000000F0C0BAA808002010B5406A0021C18590
:10501000C184FEF7C1FB10BD70B5446A20684069C9
:1050200094F84110C0F3C0100025212904D118B113
:10503000E584204600F0B4F82068406994F84210F6
:10504000C0F38010222904D118B1E585204600F074
:1050500080F8606C40F0100060642046FEF79CFB16
:1050600070BD10B50146406A096809684FF000023A
:1050700089062ED4C28501680C3151E8003F23F423
:10508000807341E80034002CF5D10168143151E8F7
:10509000003F23F0010341E80034002CF5D1016802
:1050A000143151E8003F23F0400341E80034002C64
:1050B000F5D1202180F84210016B012909D1016846
:1050C0000C3151E8003F23F0100341E80034002C7C
:1050D000F5D14263016B012902D0FEF739FE10BD04
:1050E000818DFEF720FB10BD10B5406A01214163A0
:1050F000016B012902D0FEF77BFE10BD818D4908AE
:10510000FEF711FB10BD10B50146406A0968096839
:10511000890616D40021C1840168143151E8002F9A
:1051200022F0800241E80023002BF5D101680C3108
:1051300051E8002F42F0400241E80023002BF5D156
:1051400010BDFEF7DFFE10BD10B5406AFEF7DBFEB6
:1051500010BD01680C3151E8002F22F4907241E833
:105160000023002BF5D10168143151E8002F22F003
:10517000010241E80023002BF5D1016B012909D17F
:1051800001680C3151E8002F22F0100241E80023A1
:10519000002BF5D1202180F84210002101637047D7
:1051A00001680C3151E8002F22F0C00241E80023D1
:1051B000002BF5D1202180F84110704708B590F8F8
:1051C0004210222901D0022008BD82684FF480538A
:1051D0009A4201D1016921B1816A9A421BD04AB138
:1051E0000AE00268816A5268C2F308020A80816A92
:1051F000891C08E0026972B10268526802F07F02FD
:105200000A70816A491C8162C18D491E0904090C1A
:10521000C18503D01BE002685268F1E70168CA68E3
:1052200022F02002CA600168CA6822F48072CA6053
:1052300001684A6922F001024A61202180F8421087
:1052400000214163026B012A03D0FEF781FD00209B
:1052500008BD016301680C3151E8002F22F01002F3
:1052600041E80023002BF5D101680A68D20602D577
:105270000A6849680091818DFEF755FAE7E700005A
:1052800070B5044600680169E26821F44051114399
:1052900001612169A0680843616908432168CA68FF
:1052A00041F20C639A430243CA6020684169A269D3
:1052B00021F44071114341611E492068884202D1A6
:1052C000FDF78AFC01E0FDF777FC00EBC00101EB84
:1052D0000012606864218000B2FBF0F3B3FBF1F3CD
:1052E0006FF018067343B2FBF0F5B2FBF0F605EB76
:1052F0008305322303EB0515B5FBF1F5B6FBF1F69B
:1053000005F0F00505EB0615B2FBF0F6B2FBF0F088
:10531000B0FBF1F06FF01802504306EB800003EB96
:105320000010B0FBF1F0216800F00F002844886005
:1053300070BD00000038014038B5816204468285A6
:10534000002013466064222284F84220E56B1B4A49
:10535000AA62E56B1A4AEA62E56B1A4A2A63E26BB3
:1053600050630A462168E06B091DFDF711F92068BA
:10537000016840680090206948B120680C3050E80E
:10538000001F41F4807140E80012002AF5D1206826
:10539000143050E8001F41F0010140E80012002ADB
:1053A000F5D12068143050E8001F41F0400140E87A
:1053B0000012002AF5D1002038BD0000635000081B
:1053C000E95000081950000881628285C2850021D9
:1053D0004164222180F84210016921B10168CA6844
:1053E00042F48072CA6001684A6942F001024A616F
:1053F0000068C16841F02001C160002070472DE9BC
:10540000F041984617460E460446069D27E0681C64
:1054100025D02DB1FDF7FEF9A0EB0800A8421ED95A
:1054200020680C3050E8001F21F4D07140E80012D1
:10543000002AF5D12068143050E8001F21F0010146
:1054400040E80012002AF5D1202084F8410084F8B9
:105450004200002084F840000320BDE8F08120686D
:10546000006836EA000004D00020B842CFD0002007
:10547000F3E70120F9E7000010B50348FEF78EF9C5
:10548000BDE81040FFF7E0BCF00800200148FEF73F
:1054900085B9000038090020F8B531480068016876
:1054A000C943C9065BD401680025406800902C48B8
:1054B000FEF73AF92B48006840682B4CC0F1C80051
:1054C000C1B204F1CA0084F8C9100646FBF764F9BA
:1054D00094F8C920611C3046FBF7E7F894F8C9102E
:1054E000601CFBF759F994F8CA00EB282BD194F80B
:1054F000CF00902827D11D491C4BC81E10330078BF
:105500000A180831014402F8015C034401F8015C07
:1055100003F8015C94F8CB70874294F8CC0002F851
:10552000010C94F8CD0001F8010C94F8CE0003F8BA
:10553000010C02D10120207005E084F8CC5084F8E1
:10554000CD5084F8CE5094F8C9103046FBF724F9BA
:10555000C822611CBDE8F8400148FEF7DDBBF8BD7C
:10556000800900201C0B0020410F00206B00002050
:1055700010B50348FEF712F9BDE81040FFF78CBFE5
:1055800080090020F8B57E4800680168C943C90653
:105590007ED40168406800907948FEF7C5F87948E4
:1055A00000684068784CC0F1C800C5B204F1C90079
:1055B00084F8C850C8210646FBF7EEF82A46214673
:1055C0003046FBF772F8714F38782B280DD0AC2895
:1055D00002D1F878902808D06B4894F8C910C830E8
:1055E000AB2909D0EB297DD0BEE094F8C8206749EB
:1055F0006748FEF74BFCB7E0634A94F8C810C7321F
:105600008A5CEB2AF0D1085C9028EDD1614B012235
:105610001A7014F8CA2F07F81D2F62787A70A278D2
:10562000BA70227D7A71627DBA71A27DFA7114F826
:10563000042F62F30700627862F30F20A27862F30E
:105640001740E27862F31F60227962F30701627902
:1056500062F30F21A27962F31741E27962F31F61CD
:1056600003F0F8FC4C490860217D284661F30700EF
:10567000617D61F30F20A17D61F31740E17D61F34E
:105680001F60217E61F30706617E61F30F2600E053
:1056900075E0A17E61F31746E17E61F31F663F4925
:1056A000C1E90006217F284661F30700617F94F875
:1056B000202061F30F20A17F61F31740E17F61F3A8
:1056C0001F60294662F3070194F8212062F30F213D
:1056D00094F8222062F3174194F8232062F31F61AB
:1056E0002F4A00E026E0C2E90001207A294660F353
:1056F0000701607A227B60F30F21A07A60F31741E3
:10570000E07A60F31F61284662F30700627B62F370
:105710000F20A27B62F31740E27B62F31F60214AF5
:10572000C2E90010E07C38764FF400511E48FDF7C6
:1057300063F819E094F8C810085C902814D14FF46D
:1057400000711A48FDF758F8194894F8CC104170C8
:1057500014F8CA1F0170617881701648007818B972
:105760001548006801F0FCFAC8210748FBF714F857
:10577000BDE8F840C82204490148FEF7CDBAF8BD9B
:10578000A80800200C0A0020D3100020A80B00203D
:10579000F00800208C00002038000020400000208D
:1057A000480000206000002000100140000C014073
:1057B0003400002000000020240000200148806AFE
:1057C00001F0CEBA04000020FEE700000C4910B53D
:1057D0000A4AC1E90020002088600C22C860C1E9A3
:1057E00004028861C8610846FEF70EF9002803D05C
:1057F000BDE81040FCF79EBB10BD00000044004017
:1058000038090020490050EAC12018BF04204A0D81
:1058100018BF40F0010040F2FF72B2EB515F08BFC9
:1058200040F00200012808BF052070470907090E53
:10583000002804DB00F1E02080F80014704700F03D
:105840000F0000F1E02080F8141D70472DE9F74F9C
:10585000144694B00021C4E902111599079121F072
:105860000045C9498D4206DC1599C4E9000117B00D
:105870000020BDE8F08FC549DFF814A3A9423CDD44
:105880000799C44E0029C44FC44A1599534619DDDF
:1058900004F04CF9554506D0C14AC24B04F046F914
:1058A000C4E900010AE04FF0D352BE4B04F03EF9C8
:1058B00032463B4604F03AF9C4E9000117B0012032
:1058C000BDE8F08F03F0F8FB554506D0B44AB54B60
:1058D00003F0F2FBC4E900010AE04FF0D352B14BF0
:1058E00003F0EAFB32463B4603F0E6FBC4E9000165
:1058F00017B04FF0FF30BDE8F08FAB49A9421599C2
:1059000078DB21F0004183468846A84AA84B03F083
:10591000E7FE0022A74B03F0CFFB03F01DFE09902A
:1059200003F077FE06460F469C4A534603F0D8FE26
:1059300043465A4604F008F880468A46984A994BEE
:105940003046394603F0CCFE2A0D01250B92424623
:10595000534603F0F9FF032DC4E9000139D00B9839
:10596000C1F30A51401A05EB45111139814230DA71
:105970009148C346784400EB0510CDF80CA00C907C
:10598000D0E900233046394603F0AAFE02460B4612
:10599000049106905846039904F0C8F880468A4658
:1059A00002460B465846039904F0C0F8049B069A39
:1059B00004F0BCF883460C9803913946D0E90223E1
:1059C000304603F08DFE5A46039B04F0AFF86D1C81
:1059D000BDE707980028A2BF099817B0BDE8F08F6F
:1059E000616881F000416160099817B04042BDE8EC
:1059F000F08FFFE784461598C1F31301C0F30A50F6
:105A0000A0F2F5304FEA601800F01F06C6F1200042
:105A1000139000200690079041F4801E05206D46EB
:105A200076B1664A08EB00017A4452F8213002EB65
:105A30008101B3404A68139922FA01F1194305E044
:105A40005F4908EB0002794451F82210A1FB0E27B0
:105A5000A1FB0C131A449A4234BF0123002303EB29
:105A6000070A05EB8003D3E901B70F448F4234BF27
:105A70000121002193448B4411B1934502D903E0E5
:105A8000934501D2012100E00021C3E901B751444F
:105A900045F82010011EA0F10100C1DC0298059F0D
:105AA00000F10050800F12900298DDE9035680004B
:105AB00003F0AFFD834628460D9103F0C1FD6FF062
:105AC0001D0204F02CFBCDE90E01304603F0B8FDB9
:105AD0006FF03D0204F023FB80468A46384603F00F
