:020000040800F2
:10000000C89F00209D02000857500008594A000868
:10001000555000089B24000865640008000000009B
:1000200000000000000000000000000005020008C1
:100030000F25000800000000490200083957000899
:10004000B7020008B7020008B7020008B7020008AC
:10005000B7020008B7020008B7020008B70200089C
:10006000B7020008B7020008B7020008B70200088C
:100070009D240008A9240008B5240008C124000814
:10008000B7020008B7020008B7020008B70200086C
:10009000B7020008B7020008B7020008B70200085C
:1000A000B7020008B7020008B7020008B70200084C
:1000B000B7020008CD570008D9570008B70200085A
:1000C000B7020008B7020008B7020008B70200082C
:1000D000B7020008FD60000811610008F561000822
:1000E000B7020008B7020008B7020008B70200080C
:1000F000B7020008B7020008B7020008B7020008FC
:10010000B7020008B7020008B7020008B7020008EB
:10011000795C0008B702000815580008215800084B
:10012000B7020008B7020008CD240008D92400084F
:1001300000F002F800F056F80AA090E8000C8244A3
:100140008344AAF10107DA4501D100F04BF8AFF280
:10015000090EBAE80F0013F0010F18BFFB1A43F0A5
:1001600001031847F0AC000010AD0000103A24BFA6
:1001700078C878C1FAD8520724BF30C830C144BF0C
:1001800004680C607047000000230024002500264E
:10019000103A28BF78C1FBD8520728BF30C148BFEA
:1001A0000B60704766290AF00C84642900F00E8108
:1001B000782900F04781732900F0498600207047B4
:1001C0001FB500F0DFFE04000020002109F088FDCB
:1001D000401C60600020002109F06CFDE0601FBD44
:1001E00010B510BD01F03EF81146FFF7E9FF07F02A
:1001F00071FB01F0BDFA03B4FFF7F2FF03BC06F098
:100200001FFD0000224B19680868B0E8F00F80F36A
:100210000988BFF36F8F4FF0000080F311884EF014
:100220000D0E70470000000006480068006880F36B
:10023000088862B661B6BFF34F8FBFF36F8F00DFE0
:1002400000BF00BF08ED00E0EFF30980BFF36F8F40
:100250000F4B1A6820E9F00F106008B54FF05000FE
:1002600080F31188BFF34F8FBFF36F8F08F018FD35
:100270004FF0000080F31188BDE808401968086855
:10028000B0E8F00F80F30988BFF36F8F704700BFAD
:10029000A8000020EFF30580704700000948804760
:1002A00009480047FEE7FEE7FEE7FEE7FEE7FEE758
:1002B000FEE7FEE7FEE7FEE704480549054A064B70
:1002C00070470000C957000831010008C899002094
:1002D000C89F0020C89B0020C89B00207047B2F137
:1002E00020030AD5C2F1200320FA02F001FA03F339
:1002F00021FA02F140EA0300704721FA03F04FF0BF
:10030000000170470FB41CB5074B06AA7B44694631
:100310000090059800F071FD0020694600F080FD16
:100320001CBC5DF814FB0000110B000070B5044606
:1003300085690068C10601D5302600E02026C00787
:1003400007D070BDD4E9012130469047206A401C97
:1003500020626D1EF6D570BD70B5044685690078C3
:10036000C00707D170BDD4E9012120209047206A41
:10037000401C20626D1EF6D570BD70B50C4605465A
:10038000012A05D02878800600D5EA69002302E01A
:10039000012305E05B1C934202D2E05C0028F9D106
:1003A000A869E618C01AA861286A18442862284675
:1003B000FFF7BCFF04E0D5E9012114F8010B9047D9
:1003C000B442F8D32846FFF7C7FF70BD2DE9F041CE
:1003D0000646002410687529314616A510D0AFF3E3
:1003E0000080002802DA404213A507E031688A073E
:1003F00001D512A502E0490704D511A5012401E0A9
:10040000AFF3008000210A2206F1240709E0B0FBC7
:10041000F2FCB0FBF2F302FB1C00303078541846BB
:10042000491C0028F3D123462A463046BDE8F04156
:1004300000F077BA000000002D0000002B00000043
:100440002000000070B504460D4621461068AFF349
:1004500000802188090502D50F4A7A4402E00E4A3D
:100460007A440E32002104F1240305E000F00F0667
:100470000009965D5E54491C0028F7D120780023BE
:10048000000704D5702D02D009B102231132204695
:10049000BDE8704000F045BAECA600002DE9F05F21
:1004A000894604464FF0000ADFF874B1FB44C0F8F7
:1004B00020A02046E1688847002874D0252806D06F
:1004C000D4E901219047206A401C2062F1E7002610
:1004D0005F462046E16888472028054607DB312D26
:1004E00005D2781910F8200C08B10643F1E7B007DF
:1004F00001D526F00406C4F81CA00027C4F818A0F3
:100500002A2D09D0284606F094FB38B304EB87085F
:10051000303DC8F8185019E059F8041B204604EB88
:1005200087029161E1688847012F054618D1E0698B
:10053000002820DA26F020061DE0D8F8180000EB8D
:10054000800005EB40003038C8F818002046E1680C
:100550008847054606F06DFB0028EED1012F0AD032
:100560002E2D08D12046E16888477F1C0546022FC2
:1005700046F02006C4DBA069002803DA404246F0BA
:100580000106A061F00701D026F010066C2D0BD0FB
:10059000682D09D04C2D39D06A2D35D0742D35D029
:1005A0007A2D33D016E038E0E1682F4620468847A0
:1005B000B842054609D16C2F26D04FF48060E1681F
:1005C000064320468847054604E06C2F1AD04FF4B6
:1005D000807006430DB3A5F14100192802D82035DB
:1005E00046F400664A462946204626604E46FFF7F6
:1005F000D9FD80B101280BD0F61D26F0070000F1CF
:10060000080956E74020E4E78020D8E70020D6E735
:1006100006F104094DE7284652E7206ABDE8F09F3D
:10062000C2A6000070B5064600F06CF904680546E5
:1006300030460A22002100F061FC2C6070BD401E93
:10064000CAB210F8011F8A4202D00029F9D1002055
:10065000704710B5431C02E010F8011B71B181070F
:10066000FAD14FF0013202C88C1A8C4314EAC2113D
:10067000F9D0C01A0A0603D0C01E10BDC01A10BDA2
:100680000A0401D0801E10BD0902FCD0401E10BD1E
:1006900040EA010370B59B072ED14FF00136042AC2
:1006A0002AD308C810C99D1B9D43121F15EAC61501
:1006B00017D0D8B2E1B2401A50EA056110D198B211
:1006C000A1B2401A50EA05410AD123F07F4024F03C
:1006D0007F41401A50EA052102D1180EA0EB1460A8
:1006E00070BDA342DBD018BA21BA884201D90120DB
:1006F00070BD4FF0FF3070BD0AB9002070BD10F81A
:10070000013B11F8014B63B1A3420AD1521E08D03C
:1007100010F8013B11F8014B1BB1A34201D1521E4D
:10072000EDD1181B70BD032A40F2308010F0030C8D
:1007300000F0158011F8013BBCF1020F624498BF34
:1007400011F801CB00F8013B38BF11F8013BA2F1D1
:10075000040298BF00F801CB38BF00F8013B11F04C
:10076000030300F02580083AC0F0088051F8043BEC
:10077000083A51F804CBA0E80810F5E7121D5CBF59
:1007800051F8043B40F8043BAFF30080D20724BF8C
:1007900011F8013B11F801CB48BF11F8012B24BF20
:1007A00000F8013B00F801CB48BF00F8012B70476F
:1007B00010B5203AC0F00B80B1E81850203AA0E8FC
:1007C0001850B1E81850A0E81850BFF4F5AF5FEA30
:1007D000027C24BFB1E81850A0E8185044BF18C9E3
:1007E00018C0BDE810405FEA827C24BF51F8043B8A
:1007F00040F8043B08BF7047D20728BF31F8023BDE
:1008000048BF11F8012B28BF20F8023B48BF00F871
:10081000012B70474FF000020429C0F0128010F045
:10082000030C00F01B80CCF1040CBCF1020F18BFCC
:1008300000F8012BA8BF20F8022BA1EB0C0100F05F
:100840000DB85FEAC17C24BF00F8012B00F8012B32
:1008500048BF00F8012B70474FF0000200B5134667
:1008600094469646203922BFA0E80C50A0E80C50D0
:10087000B1F12001BFF4F7AF090728BFA0E80C5081
:1008800048BF0CC05DF804EB890028BF40F8042B7A
:1008900008BF704748BF20F8022B11F0804F18BFE7
:1008A00000F8012B704710B5044610F0030F08BF85
:1008B00011F0030F40F015804FF0013E121FC0F2FF
:1008C0000E8051F8043BA3EB0E0C2CEA030C1CEA3F
:1008D000CE1C08BF40F8043BF0D0A1F1040102F1A6
:1008E0000402521E08DB11F8013B002B00F8013B0B
:1008F000F7D11146FFF78EFF204610BD70477047B5
:1009000070477047004870476899002010B5FFF79E
:10091000F9FF006810BD10B50446FFF7F3FF04604F
:1009200010BD2DE9F0470D4699469246044600F168
:1009300024080168880604D5E06921F010012160CF
:1009400000E00120A84201DD471B00E00027A1696B
:100950007A1902EB0900081AA0612078C00602D4B7
:100960002046FFF7E3FC002608E0D4E901211AF84D
:1009700006009047206A401C761C20624E45F4DB3E
:100980002078C0060AD52046FFF7D0FC06E0D4E95F
:10099000012130209047206A401C2062381EA7F1B8
:1009A0000107F4DC07E0D4E9012118F805009047BD
:1009B000206A401C2062281EA5F10105F3DC2046B8
:1009C000FFF7CAFC2078000602D50220BDE8F087B8
:1009D0000120FBE770472DE9FF4F0C461E464FF004
:1009E000FF378BB0D2E90001DDF860800A908A46BB
:1009F000C1F30A5505B93D46002108464FF00000F5
:100A0000BAF1000F00F4400005DA00EB80004FF46B
:100A1000400101EA50004FEA9059B9F1010F00DDA1
:100A2000B9460A9850EA4A000ED044F61050A5F292
:100A3000FF3545432F14B8F1000F1ED07542291E13
:100A40001EDDC9F100021CE0B8F1010F4FF00000FB
:100A500001D0302103E0F24305E02154401CB042B4
:100A6000FBDB30460022002121540B99C1F808809D
:100A7000C1E900200FB0BDE8F08FBD1B6D1CDEE7A3
:100A80004A4600DA694206A800F07EFB06AB93E80E
:100A9000070003AB83E8070050460A9901F0EFF81E
:100AA0008DE80700A0F500501F3800900398002D36
:100AB00009DD42F21F014A46084403A90390684633
:100AC00001F079FB08E0A0F500504A461F3803A961
:100AD0000390684601F097FB8DE807000004000CC6
:100AE00003D04FF0FF30410800E01046B8F1000F8E
:100AF00003D00022009215461EE0751E05D400F0BA
:100B000045FA303262556D1EF9D5B34601220843CD
:100B100002D000227F1C04E02078302801D100227E
:100B20007F1E002A099786D01DE0112D07DA00F0FC
:100B30002DFA303262556D1C50EA0102F5D108439E
:100B400002D00098C8B10EE00021681E05E0235CC9
:100B5000625C63542254401E491C8142F7DBAB4661
:100B6000A81B401E0990002004F80B000B98099A5E
:100B7000C0F80880C0E9002B7CE711264FF0000880
:100B800059E72DE9F04F88460446D21D22F00701AF
:100B900091B0D1E90001CDE90A0105F0A7FC0246B8
:100BA0000B98C00F01D02D2007E02068810701D5E8
:100BB0002B2002E0202101EAC000032A099001D085
:100BC000072A05DB03464146204600F02DFA0BE1DB
:100BD0002078800601D5E06900E00620B8F1650FB5
:100BE000814606D0B8F1660F18D0B8F1670F70D102
:100BF00031E00020B9F1110F009001DB112301E079
:100C000009F101030AAA01A90CA8FFF7E4FEDDE936
:100C10000C70002609F10105834647E001204B4690
:100C200000904FF000470AAA01A90CA8FFF7D3FED5
:100C3000DDE90DB00C995D46002610B909F10100FF
:100C40000D18B9EB050003D4C0F1FF3609F1010519
:100C5000A5EB09002BE0B9F1010F01DA4FF0010912
:100C60000020B9F1110F0090484601DD112300E08A
:100C700003460AAA01A90CA8FFF7ADFEDDE90C7036
:100C80004D4600268346207800070AD4AB4500DA9B
:100C90005D4601A8012D04DD411911F8011C302920
:100CA00007D04F4502DA17F1040F04DA012082461B
:100CB0000FE06D1EEEE7002F02DCED1B3E4403E06B
:100CC000781CA84200DD7D1CB81B00F1010A4FF022
:100CD00000472078000703D4AA4501DB4FF0FF3A14
:100CE0000021B7F1004F0DF143088DF8431024D0D7
:100CF00002202B23002F01DA7F422D230A21021E1E
:100D0000A0F1010000DC5FB197FBF1FC97FBF1F271
:100D100001FB1C7C17460CF1300C08F801CDEEE706
:100D2000A8F1010003702188090501D5452100E0E3
:100D30006521A0F1010800F8011C09980FA9A1EB99
:100D40000807FF1D00B10120411901EBEA70A169FC
:100D50003844081A401EA0612078C00602D42046FC
:100D6000FFF7E4FA099828B1D4E901219047206AF5
:100D7000401C20622078C00622D52046FFF7D6FA14
:100D80001EE0002E04DBB34502DD01A8805D00E01B
:100D90003020D4E901219047206A401C2062761C53
:100DA000AAF101005FEA000A0AD100F0EBF8C0687E
:100DB0000168405CD4E901219047206A401C206210
:100DC000281EA5F10105DCDC07E0D4E9012118F8B3
:100DD000010B9047206A401C2062381EA7F10107D2
:100DE000F3DC2046FFF7B8FA032011B043E6000019
:100DF00001694A1C02610878704700B58FB0CDE9DF
:100E000001310021059105497944CDE903101146CE
:100E10006846FFF743FB0FB000BD0000E5FFFFFF92
:100E20000A6802F8010B0A60704710B5436913B1F4
:100E3000AFF3008001E0FFF7A0FA012010BD1278A7
:100E400000F124010A7000224A700122EDE71168C6
:100E50004FF0FF32E9E700000FB4002300B589B07E
:100E60000CA900910B99CB60214B7B440693214B3D
:100E70007B44079304236FF00042CDE901321E4A00
:100E80007A446B4608920246002009F0FCFD09B046
:100E90005DF814FB70B506464FF0FF3015460C4662
:100EA000324686B00091CDE90101694600200490E8
:100EB00004A8FFF7D1FF02460498211825B108B114
:100EC000084600E020462860049800280DD0002A3B
:100ED00002DD0098884208D03246081B694600941B
:100EE000CDE9010404A8FFF7B7FF06B070BD00000C
:100EF0003B02000053020000930100002DE9F0477F
:100F000091460F4680460446002614F8015B2DB139
:100F100000F030F80068405DC007F6D12B2D02D0FC
:100F20002D2D18D0641E4A463946204600F0DCF8C4
:100F300027B13968A14201D1C7F800804FF00204FF
:100F400071050BD54042002803DDFFF7DBFC046090
:100F5000A007BDE8F08746F48066E4E70028F8DAE9
:100F6000FFF7D0FC04606FF00040F2E700487047E4
:100F70006899002010B500F005F8001D10BD00BFF5
:100F8000618D0000004870478899002030B5B0F1AD
:100F90000A024FEA900E71F100034EEA817EB0EB37
:100FA0000E0061EB91014FEA101E4EEA017E10EB3C
:100FB0000E0041EB11114FEA102E4EEA016E10EBBC
:100FC0000E0041EB11214FEA104E4EEA014E10EB9C
:100FD0000E0041EB1141401841F100014FEAD000F1
:100FE00040EA41704FEAD10110EB80054FEA8104DD
:100FF00044EA907444EB01046D1944EB0404521B61
:10100000A3414FF0000348BF0A3200D530BD401C59
:1010100041F1000130BD10B50446FFF7ABFF006899
:10102000005D00F0010010BD2DE9F0411F460446AF
:1010300003260168072A01F4006004DB08B116A545
:1010400005E016A503E008B115A500E015A521F0FF
:1010500010002060A069C01EA0610FB1401EA061F9
:101060002046FFF763F94FB1D4E901213846904794
:10107000206A401C2062C01C206206E0206AFAE759
:10108000D4E9012115F8010B9047761EF8D22046CD
:10109000FFF762F9BDE8F0814E414E006E616E00CF
:1010A000494E4600696E6600426842B1016811F817
:1010B000013B23B1521EC0E90012184670470121BE
:1010C000C160881E704742685AB1C368016843B95D
:1010D00083688B4205D0491E521CC0E900120020D3
:1010E00070474FF0FF3070472DE9F05F824615469C
:1010F0008B4600270AF10104B9460078302801D058
:101100009DB113E014F8010B0127782803D058286B
:1011100001D045B10AE00DB1102D07D1002714F818
:10112000010B102502E0082500E00A250026B04644
:101130000EE005FB080005FB06F101271FFA80F809
:1011400001EB1046B6F5803F00D3B94614F8010B09
:10115000294600F0ACF80028EBDABBF1000F05D00F
:101160000FB1641E00E05446CBF80040B9F1000F07
:1011700006D0FFF7C7FB02210160C81EBDE8F09F43
:1011800048EA0640FAE700002DE9F0478146164696
:101190008AB0334878440DC88DE80D003048784453
:1011A000801C03AC0DC884E80D0041F69B30084458
:1011B000372190FBF1F290FBF1F5A5F1800501FBE1
:1011C00012041B3C02D56442012000E00020DFF83D
:1011D00090A080460027FA44AAF1BE0A0DE0E0077D
:1011E00009D03246684607EB47010AEB810101F05E
:1011F0000AF88DE8070064107F1C002CEFD1184F0F
:101200007F44AC3F18E0E80714D007EB04100DF161
:10121000180A90E80E008AE80E00C068F04201D17A
:1012200098190890324606A903A800F0ECFF03AB1A
:1012300083E807006D10641C002DE4D13246694636
:10124000B8F1000F03A802D000F0B5FF01E000F0F4
:10125000DAFFC9E90001C9F808200AB0BDE8F08743
:101260007C9C00007546FFF781FEAE46050069468E
:10127000534620F00700854618B020B5FFF71CF84C
:10128000BDE820404FF000064FF000074FF0000887
:101290004FF0000B21F00701AC46ACE8C009ACE808
:1012A000C009ACE8C009ACE8C0098D4670473A28CF
:1012B00000D2303820F02002412A01D3A2F13700B9
:1012C000884201D34FF0FF30704700002DE9FF4FF7
:1012D000064689B00878FF2806D0491C2D2805D07D
:1012E00000244FF0000908E000200CE00124F8E79A
:1012F00009EB8903491C00EB43090878FF28F7D163
:1013000014B1C9F100008146107800252C46AA4688
:1013100029462D2801D02B2804D1521C2D2813D06A
:10132000002082468B461078FF280FD04FF0000C2B
:101330000A21521CA5FB017804FB018105FB0C115D
:10134000C5194BEB0104EEE70120EAE7002108464E
:101350004FF00000BAF1000F02D000EB800040080F
:10136000C0F38158B8F1010F01DD4FF0FF380C9840
:1013700009EB000755EA040009D04FF0020917F500
:10138000FA7F0BDA4FEACA70C6E900B012E04FEA02
:10139000CA70C6E900B00DB0BDE8F08FB7F5FA7FAE
:1013A0000DDDF0487844D0E90010C6E9001040EAAD
:1013B000CA707060FFF7A6FAC0F80090EBE7391E1C
:1013C00002DAC8F1000200E0424600DA794206A8DB
:1013D000FFF7DAFE06AB93E8070003AB83E80700EC
:1013E00044F23E005BEA04010090584604D144F206
:1013F0001E012C465D460091210C0904014306D1D3
:101400000099240444EA15442D041039009104F095
:101410007F41014306D10099240244EA15642D025C
:101420000839009104F07041014306D1009924016C
:1014300044EA15742D01091F009104F04041014355
:1014400006D10099A40044EA9574AD00891E00916C
:1014500004F00041084304D100986D196441401E16
:10146000009042466846002FCDE9014503A902DD00
:1014700000F0DDFE01E000F0B2FEBAF1000F04461C
:101480000D4601D084F0004440F2FF7724F0004084
:10149000284303D0C4F30A50B84212D1FFF732FAFE
:1014A000C0F80090C4F30A50B8420AD1AE4878445C
:1014B000D0E90010C6E9001004F000410843706054
:1014C00069E7C6E9005466E72DE9FF4F1F464FF074
:1014D000000A4FF0FF38454691B0D7E90146CDF8F4
:1014E0003CA0FFF74FFDC0680168405C1090B969EF
:1014F00012986D1C8847396A814688470028F6D1C2
:10150000B9F1FF3F0AD0002E24F4D06411DDB9F107
:101510002B0F08D0B9F12D0F0BD102E0404615B0CA
:101520003AE744F48064B96912986D1C8847761EC6
:101530008146600504A901D52D2000E02B20002E56
:1015400001F1010B0DF130088DF810003FDDB9F10C
:10155000690F08D0B9F1490F05D0B9F16E0F02D06B
:10156000B9F14E0F1CD13B4601A8009580E850020E
:10157000DDE912126FF0020009F089FAC11CCED128
:101580000EE0B96912986D1C884781461398761E43
:1015900044F4007405600F98401C002E0F9016DD77
:1015A000B9F1300FEDD0B9F1780F02D0B9F1580F81
:1015B0000DD10F9801280AD13B46CDE90054DDE951
:1015C0001212001F029609F060FAC11CA7D11099EF
:1015D00089453ED144F0800406E01399681CAAF1C5
:1015E000010A44F400740860B9696D1C1298761EF3
:1015F000884730288146F0D02BE01099894505D1E5
:10160000200603D4761E44F0800418E0484605F016
:1016100010FB08B3761E0DF123018B4544F40074D2
:1016200008D2A9F130000BF8010B200607D5AAF16A
:10163000010003E0200602D40AF101008246A00561
:1016400002D51399681C0860B96912986D1C884707
:101650008146002ED1DC53E0002E51DDB9F1650F3B
:1016600002D0B9F1450F4BD1A00549D5B9696D1C20
:101670001298761E24F440748847002E81460CDDB3
:101680002B2804D0B9F12D0F07D144F48074B96927
:1016900012986D1C8847761E8146E00501D52D21E4
:1016A00000E02B2108F8011BCDF8008021E0761E18
:1016B0000DF13901884544F400740CD2A9F13000D1
:1016C00010F0FF0088F8000002D10099884509D980
:1016D00008F1010806E0E00501D5244801E042F2E6
:1016E0000F708246B96912986D1C8847814613981D
:1016F0000560002E04DD484605F09BFA0028D6D18F
:10170000F96912988847FF2053468BF8000088F843
:10171000000000200A900B9004AA0CA90AA8FFF769
:10172000D5FDA00502D46FF00100F8E614F0240FF7
:101730000AD0E00714D13868DDE90A12031D3B60C6
:101740000068C0E900120BE00AA9684605F01AFA21
:10175000E00705D13868009A011D39600068026011
:101760002846DCE6CC9A0000C2990000F1D8FFFFC1
:1017700010B50446AFF300802046BDE81040FEF7E8
:101780003ABD00004FF0013C50F8042B51F8043BE7
:101790009A4221D1A2EB0C03934313EACC1317D145
:1017A00050F8042B51F8043B9A4215D1A2EB0C03DC
:1017B000934313EACC130BD150F8042B51F8043B9C
:1017C0009A4209D1A2EB0C03934313EACC13DBD06A
:1017D0004FF00000704700BFD01A01BAB1FA81F192
:1017E00001F0180122FA01F0CB40C1F12001DBB277
:1017F000C0B2C01A2CFA01F3D11A914311EAC311F5
:10180000E6D170472DE9FF4F1F464FF03C0987B0E6
:101810004FF00042DDE9141001F10108DDF858A095
:1018200002EA405003900020059083460546044696
:101830000490B969461E08988847AAF1010A0290E7
:10184000BAF1000F3BDD02982E2815D01021FFF7CA
:101850002EFD00282EDB4FF0010B0599014317D018
:10186000B9F1000F0BDB4A46C11700F0F5F905434B
:101870000C43A9F1040905E0012004900BE008B134
:1018800045F0010501200590049820B9361D02E0BD
:10189000049800B1361FB969089808F10108884713
:1018A000BBF1000FAAF1010A0290C9D00999C1F851
:1018B0000080C5E70298702808D0502806D0F96942
:1018C00008988847BBF1000F14D04FE00020029029
:1018D0000120BBF1000F049009D0B969089808F104
:1018E00001088847AAF10109B9F1000F07DCF9697D
:1018F000089888476FF001000BB0BDE8F08F2B28E7
:1019000004D02D280CD14FF0FF300490B96908980D
:1019100008F101088847A9F10109B9F1000FE6DDD6
:10192000411CE4D00A21FFF7C2FC0028DFDB02994A
:1019300008F1010801EB810100EB41000290B96957
:10194000089888470A21FFF7B2FC099AA9F1010912
:10195000B9F1000FC2F8008001DD0028E7DAF9696B
:10196000089888470499029800FB016655EA04002C
:1019700004D004F04041090002D006E0039898E04A
:10198000A40044EA9574AD00B61E04F000410800BE
:1019900002D16D196441761E159810F0240F03D002
:1019A0004FF00B095C4803E04FF028096FF07D0011
:1019B0008246564507DAAAEB06018944B9F1410F80
:1019C00001DD4FF0410901200021A9F1010200F0E1
:1019D00043F9024628400B462140084301D001212B
:1019E00000E00021501E029143F1FF3128402140C8
:1019F000084301D0012000E000200299834651EA0B
:101A00000B014FD0002108464FF00000039900F46D
:101A1000400039B100EB80004FF4400100EBD07082
:101A200001EA60008015012802DD4FF0FF3000E080
:101A300013D0401C36D0029860B3BBF1000F0CD11C
:101A40004A460120002100F007F9284021400843C0
:101A500001D0012000E00020E0B101204A46002131
:101A600000F0FAF8034640190A4661412D1A8C41EC
:101A700011D3B9F1400F09DD159810F0240F02D0F1
:101A8000AAF1340603E0AAF1170600E0761C00254F
:101A90004FF0004406E05B1E42F1FF3220EA0305EE
:101AA00021EA0204CAF10100B04206DA1B49039898
:101AB00008430190002000900EE0039AC4F3D32164
:101AC000E80A0A43164940EA44500A433146CDE940
:101AD0000002684605F0A2F8159810F0240F0BD00C
:101AE0001598C00715D13868DDE90012031D3B6069
:101AF0000068C0E900120CE002A8694605F042F84F
:101B00001598C00705D13868029A011D3960006830
:101B100002604046F0E6000002FCFFFF0000F07F9C
:101B20000000F03F2DE9FF4F92461D4685B04FF073
:101B30000041DDE9124BDDE914727F1E01EA4B50D2
:101B4000414940F0FF4940EA0108002122F020000D
:101B50004928049102D04E2828D04CE03BA0012611
:101B600007C88DE80700A9690698641C88477F1E8E
:101B7000014606D41DF8060018B121F0200181426B
:101B80000BD0E96906988847032E34D0082E32D04E
:101B90006FF0010009B0BDE8F08F761C032E01D074
:101BA000082EE0D1601CCAF80000DCE7A96906989D
:101BB000641C88477F1E2AD420F02000412826D1AB
:101BC000A9690698641C88477F1E20D420F0200055
:101BD0004E281CD1A9690698641C88477F1E48F4CA
:101BE000002849F48009CAF8004001D4282806D00A
:101BF000E969069888475FEACB7012D022E0A969AC
:101C00000698641C88477F1E01D4002803DAE9691E
:101C100006988847BCE72928F1D1641CCAF800401F
:101C2000E9E71BF0240F07D028680499031D2B60F7
:101C30000068C0E9001805E02868021D2A600068F5
:101C4000C0F800902046A5E70000F07F494E4649C5
:101C50004E49545900000000B2F120030AD5C2F1E8
:101C6000200301FA02F120FA03F300FA02F041EA3C
:101C70000301704700FA03F14FF0000070475FEA7C
:101C8000400C08BF91F0000F4FEA8C234FEAC122AD
:101C900043EA51514FEA1C5018BF00F5F0404FEA9B
:101CA000300018BF41F000415FEA6C5C00F0298011
:101CB000BCF1FF3F08BF40F080407047130C06BFE7
:101CC00012044FF0100C4FF0000C130E04BF120260
:101CD0000CF1080C130F04BF12010CF1040C930F4C
:101CE00004BF92000CF1020CD30F04BF52000CF1A0
:101CF000010C11464FF00002A0F11F00A0EB0C00F8
:101D0000704711F0004F08BF704731F000413FF4B9
:101D1000D5AF0B0C06BF09044FF0100C4FF0000CB0
:101D20000B0E04BF09020CF1080C0B0F04BF0901D4
:101D30000CF1040C8B0F04BF89000CF1020CCB0FCB
:101D400004BF49000CF1010CCCF12003A0EB0C0006
:101D500022FA03F302FA0CF241EA030100F1010056
:101D6000704720F07F4C80EA030023F07F47ACEB04
:101D7000070303F57C5300F0004003F1FF032DE956
:101D800080494FEA154B09B44FEA144325EA0B4E3C
:101D900024EA03480FF2042606EB132749083E788D
:101DA0005FEA320203FB0667C7F5000707FB06F68A
:101DB0004FEA54374FEAD64606F1020607FB066C97
:101DC000CCF1005C4FEA1C472CEA074C07FB06F4F9
:101DD0000CFB06F504EB15464FEA961634BF0020BF
:101DE0004FF000404FEAD13706FB07FC4FEA1C4C8E
:101DF0000CFB0BF7D21B03FB0CF761EB07010CFB91
:101E00000EF7B0EB074072EB17420CFB08F734BF3C
:101E1000A2EB0742B2EB074261EB17414FEA0C44D9
:101E20004FEA910706FB07FC4FEA1C4C0CFB0BF733
:101E3000B0EBC74072EB573203FB0CF734BFA2EB99
:101E4000C742B2EBC74261EB57310CFB0EF7B0EB68
:101E5000C70072EB57720CFB08F734BFA2EBC70246
:101E6000B2EBC70261EB5771039F4FEA816141EA10
:101E7000921104EBCC044FEAD1374FEA826206FBA1
:101E800007FC42EA90124FEA80604FEA1C4C0CFBC0
:101E90000BF7D21B03FB0CF761EB07010CFB0EF7F2
:101EA000B0EB074072EB17420CFB08F734BFA2EB14
:101EB0000742B2EB074261EB17414FEA8C554FEAFC
:101EC000910704EB9C2406FB07FC4FEA1C4C0CFB1F
:101ED0000BF7B0EBC74072EB573203FB0CF734BF84
:101EE000A2EBC742B2EBC74261EB57310CFB0EF7D6
:101EF000B0EBC70072EB57720CFB08F734BFA2EBD4
:101F0000C702B2EBC70261EB577115EB4C254FEAE4
:101F1000816141EA92114FEA82624FEAD13742EA87
:101F2000901206FB07FC44F100044FEA80604FEA80
:101F30001C4C0CFB0BF7D21B03FB0CF761EB0701EE
:101F40000CFB0EF7B0EB074072EB17420CFB08F7E7
:101F500034BFA2EB0742B2EB074261EB174115EB2E
:101F60001C154FEA813141EA92414FEA823242EA3E
:101F700090424FEA80304FEA0C7644F1000448EA80
:101F800003434EEA0B484FF0000EB2EB080C71EB26
:101F9000030724BF624639464EEB0E0E4FF0000B8E
:101FA0000018524149414BEB0B0BB2EB080C71EBA3
:101FB00003077BF1000B24BF624639464EEB0E0E41
:101FC0004FF0000B0018524149414BEB0B0BB2EBA9
:101FD000080C71EB03077BF1000B24BF6246394606
:101FE0004EEB0E0E51EA020718BF46F0010616EB43
:101FF0000E7655F1000254F1000103D5BDE88901C8
:10200000BDE80088BDE88901BDE80048B619524125
:1020100041EB0101A3F10103704780807F7E7D7C4D
:102020007B7A7978777676757473727171706F6E6A
:102030006E6D6C6C6B6A6A69686867666665646415
:10204000636362616160605F5F5E5E5D5D5C5C5B9F
:102050005B5A5A595958585757565655555554540E
:10206000535352525251515050504F4F4F4E4E4D6C
:102070004D4D4C4C4C4B4B4B4A4A4A4949494848B8
:1020800048474747474646464545454444444443F8
:1020900043434342424242414141000046EA064630
:1020A000A3F570534FEA164646EA42564FEAD2224B
:1020B00042EA415210B54FEAD121A3F1010300F0E9
:1020C00017F820F0004000F1010C00F0004701EB90
:1020D00000501146BCF5006F40EA070000D210BD69
:1020E00002484FF0000140EA070010BD0000F07FF9
:1020F000002B26D4770021D01CB54FEA370703B454
:102100004FF010004FF010014FF000000FBCBDE881
:1021100010400BF1010BBBF1010F08BF5FEA17077D
:1021200022BF12F1010211F101014FF0004143F110
:10213000000300F0004043EA00007047F9D357085D
:10214000DAE746EA064613F1400F4FEA16461FDD6E
:1021500013F1200FDFBF16430A46002120335B42F4
:10216000C8D0C3F1200746EA064602FA07F74FEA4D
:10217000164646EA0706C3F1200722FA03F201FADF
:1021800007F721FA03F14FF0000342EA0702B1E733
:1021900046EA020646EA06464FEA164646EA0106BF
:1021A000BCBF46EA0646360C4FF000034FF0000273
:1021B0004FF000019EE72DE9C048934630B491E806
:1021C000380007C831EA400C48BF34EA430C03D555
:1021D000FFF7C7FDFFF78CFFF0BCBDE800882DE9D5
:1021E000C048934630B491E8380007C831EA400C43
:1021F00048BF34EA430C03D5FFF7B3FDFFF74EFFAA
:10220000F0BCBDE800882DE9C048934630B491E8A1
:10221000380007C810F0804F08BF13F0804F03D17B
:1022200000F019F8FFF764FFF0BCBDE800882DE965
:10223000C048934630B491E8380007C810F0804F8A
:1022400008BF13F0804F03D100F005F8FFF726FF19
:10225000F0BCBDE8008820F07F4780EA030023F04F
:102260007F4C07EB0C03A3F57C5300F00040A3F177
:10227000FE0392F0000F00F0B38095F0000F00F025
:1022800077802DE901494FEA11404FEA144621EACF
:10229000004800FB06FC24EA064708FB06F607FB9D
:1022A00008F800FB07F718EB06484CEB164C4FEA12
:1022B000124B18EB07484FEA15464CEB174022EA41
:1022C0000B4E0BFB06FC25EA06470EFB06F607FB4A
:1022D0000EFE0BFB07F71EEB064E4CEB164C4FF0B9
:1022E00000061EEB074E4CEB174B18EB0B0840F1AA
:1022F000000018EB0E0B58EB000840F100008F1A9D
:102300004FF000013CBFC943661B14BFB5EB040C82
:1023100000213CBFC943F61B4FEA17444EEA8E0E1C
:1023200027EA04454FEA1C4704FB07622CEA074CE6
:1023300005FB07F70CFB05F604FB0CFC16EB074648
:1023400042EB174216EB0C4642EB1C421BEB060617
:1023500058EB0202414146EA9E0601D5BDE80189DB
:10236000B619524141EB0101A3F10103BDE8018916
:102370004FEA14454FEA114724EA054621EA074C83
:1023800005FB07F406FB07F70CFB06F105FB0CFC4D
:1023900011EB074144EB17444FEA124711EB0C4194
:1023A00044EB1C4422EA074C05FB07F206FB07F747
:1023B0000CFB06F605FB0CFC16EB074642EB17423E
:1023C00016EB0C4642EB1C456A1854F1000148BF5D
:1023D0007047B619524141EB0101A3F10103704767
:1023E00095F0000F37D04FEA11424FEA144721EA27
:1023F000024624EA074C02FB07F106FB07F70CFB39
:1024000006F402FB0CFC14EB074441EB17414FEAC6
:10241000154714EB0C4441EB1C4125EA074C02FB29
:1024200007F506FB07F70CFB06F602FB0CFC16EBA8
:10243000074645EB174516EB0C4645EB1C421219B7
:1024400051F1000148BF7047B619524141EB0101FB
:10245000A3F1010370474FEA14454FEA114724EAFC
:10246000054621EA074C05FB07F106FB07F70CFBC5
:1024700006F24FF0000605FB0CFC12EB074241EBA5
:10248000174112EB0C4251EB1C4148BF70479218A8
:1024900041EB0101A3F101037047FEE7014800F0A1
:1024A0000BBC0000D80A0020014800F005BC000069
:1024B0001C0B0020014800F0FFBB0000940A002024
:1024C000014800F0F9BB0000500A0020014800F06C
:1024D000F3BB00000C0A0020014800F0EDBB000037
:1024E000C809002030B590F840500124AC40C56BBD
:1024F0006C60046863604368102B036803D09960C4
:102500000068C26030BD9A600068C16030BD70472D
:102510002DE9F04F044691B0544801F0CBFA4FF04A
:10252000E02B0021CBF818105149D1E9000104F04B
:1025300097FF88464F490746D1E9000104F090FF14
:1025400005460DF130090DF1380ACDE904A9002046
:102550000E464949CDE90000CDE902012A4633463D
:102560003846414604F0DAFECDE9007894F8E801F7
:1025700004F108012A463346069102F06DFD2070F1
:1025800002AA00203C49CDF8149082E803043C499B
:102590003A48CDE900012A4633463846414604F020
:1025A000BDFEDDE90E01CDE9000194F8E801DDE9A9
:1025B0000C23069902F050FD607002AA00202E49FB
:1025C000CDF8149082E803042F482E49CDE900107D
:1025D0002A4633463846414604F0A0FEDDE90E01A6
:1025E000CDE9000194F8E801DDE90C23069902F039
:1025F00033FDA07020480021CDE902102448234972
:10260000CDE90010CDE904A92A46334638464146B3
:1026100004F084FEDDE90E01CDE9000194F8E80143
:10262000DDE90C23069902F017FDE07021780129FD
:1026300006D06178012903D0A178012900D018B112
:102640004FF40071134802E04FF40051124800F0BB
:102650007BFEDBF8180001F051F84FF47A71B0FB03
:10266000F1F001F027FA11B0BDE8F08F40420F0001
:10267000480000204000002000804640DBF97E6AD0
:10268000BC74A33FFCA9F1D24D62B03FBA490C0221
:102690002B87B63F000C0140001001402DE9F041AE
:1026A000464CADF5167D002020706070A070E07083
:1026B00002A802F031FD9DF8082041A17CA8FDF799
:1026C00021FE7CA8FDF7C5FF82B24FF47A7843461D
:1026D0007CA9404802F035F9002502AE25E000BF94
:1026E00006EBC5076A1CD7E90201CDE900013AA152
:1026F0007CA8FDF707FE7CA8FDF7ABFF82B243463E
:102700007CA9344802F01DF9D7E93E2336A17CA804
:10271000FDF7F8FD7CA8FDF79CFF82B243467CA93B
:102720002C4802F00EF96D1CEDB29DF80810A9427C
:10273000D6D800200DE000BF06EBC00304EB00126A
:10274000D3E90257C2E90257D3E93E53C2E9045321
:10275000401C8142F0DC84F8E811002526E000BF2F
:1027600004EB05176A1CD7E90201CDE9000120A19D
:102770007CA8FDF7C7FD7CA8FDF76BFF82B246463B
:1027800043467CA9134802F0DCF8D7E9042316A1DC
:102790007CA8FDF7B7FD7CA8FDF75BFF82B233464E
:1027A0007CA90C4802F0CDF86D1CEDB294F8E8015C
:1027B000A842D5D80DF5167DBDE8F0814015002062
:1027C000D7DCB9B2D3D020256420B8F6D7F8B1EA67
:1027D0000D0A0000A8080020B5DA2564B8F6B5E3B4
:1027E000203A20256C662C00256C660D0A0000003E
:1027F000D7EED6D5BCC6CBE3B5C4B5DA2564B8F6FA
:10280000B5E3203A20256C662C00000072B6FEE786
:1028100006490020C8610648016941F004010161D0
:10282000016941F04001016170470000301F002044
:1028300000200240064A0021D16106490A6942F09F
:1028400002020A614861086940F04000086170476F
:10285000301F002000200240044B0022DA61044AAD
:10286000136943F00103136101807047301F00209A
:102870000020024014480022C168CB06134904D549
:10288000CA6942F00202CA611022C3685B0705D51B
:10289000CB6943F00103CB6142F00402C369DB075B
:1028A00007D0CB6943F00403CB61C16921F001017A
:1028B000C161A2F58071013901D0C2607047C16960
:1028C00021F00101C161704700200240301F00204B
:1028D00070B5054600F046FD0646114C09E0681C3F
:1028E00007D025B100F03EFD801BA84201D903208E
:1028F00070BDE068C007F2D1E068800601D52020F5
:10290000E060E068C00605D4E069C00702D1E06875
:10291000400703D5FFF7AEFF012070BD002070BD5A
:1029200000200240624910B50A786248632A03D049
:1029300063220A700921017001784FF47A74491EEC
:10294000C9B20170491E09293BD2642301225AA150
:102950005A4801F0F6FF05F0CBFE2346392258A174
:10296000564801F0EEFF05F0E3FE642005F028F87C
:1029700005F0BEFE2346392251A1504801F0E1FF87
:1029800005F0D6FE642005F01BF805F0B1FE2346E5
:1029900014225AA1494801F0D4FF05F0C9FE642071
:1029A00005F00EF805F0A4FE2346142253A1434877
:1029B00001F0C7FF05F0BCFE642005F001F800F04F
:1029C000D5FD4FF4E13003F075FD05F091FE23468F
:1029D000112250A1394801F0B4FF05F0A9FE64208E
:1029E00004F0EEFF05F084FE2346112249A133488E
:1029F00001F0A7FF05F09CFE642004F0E1FF05F064
:102A000077FE234639222EA12C4801F09AFF05F0CB
:102A10008FFE642004F0D4FF05F06AFE23461122E5
:102A200041A1264801F08DFF05F082FE642004F0EC
:102A3000C7FF05F05DFE2346112236A11F4801F0B5
:102A400080FF05F075FE642004F0BAFF05F050FE2B
:102A5000234611222FA1194801F073FF05F068FEEB
:102A6000642004F0ADFF05F043FE2346392214A193
:102A7000124801F066FF05F05BFE642004F0A0FF41
:102A800005F036FE2346112227A10C4801F059FF1C
:102A900005F04EFE642004F093FF05F029FE0122AC
:102AA0002649064801F0EEFEBDE8104005F040BEA4
:102AB00010BF002000BF00202000000038090020C7
:102AC00024504D544B3331342C302C312C302C309D
:102AD0002C302C302C302C302C302C302C302C3016
:102AE0002C302C302C302C302C302C302C302C3006
:102AF0002C302C302A33350D0A00000024504D5460
:102B00004B3235312C3131353230302A31460D0AD5
:102B10000000000024504D544B3232302C31303004
:102B20002A32460D0A0000002450515458542C57A4
:102B30002C302C312A32330D0A0000003D150020C4
:102B400010B590F821100022022905D004218163DC
:102B500080F82020012010BD01680B6823F00E03CF
:102B60000B6001680B6823F001030B6090F84030A4
:102B7000C46B012101FA03F3636080F8211080F82F
:102B80002020104610BD00002DE9F05F90F82110C4
:102B90000024022903D004218163012485E0016817
:102BA0000A6822F00E020A6001680A6822F0010237
:102BB0000A603F4E3E4FB215DFF8F4C0DFF8F090E8
:102BC000DFF8ECA0DFF8E8B0DFF8E4E00168783F78
:102BD00013011502ACF1640CA9F15009AAF13C0AE9
:102BE000ABF1280BAEF1140E4FF48018B14227D987
:102BF000B9420ED0614512D049451DD0514518D07B
:102C0000594518D0714501D1424615E0294EB142CF
:102C100001D1012210E0274E1436B14201D1102219
:102C20000AE0244E2836B14206D0224A3C32914274
:102C300001D11A4600E02A461E49091F0A602BE00E
:102C4000B94213D0614517D0494522D051451DD016
:102C500059451DD0714501D142461AE0B14202D119
:102C60004FF0807215E0134EB14201D1012210E005
:102C7000104E1436B14201D110220AE00D4E283612
:102C8000B14206D00B4A3C32914201D11A4600E0D3
:102C90002A46074980394A60012180F82110002125
:102CA00080F82010416B01B188472046BDE8F09FB5
:102CB00080000240080402402DE9F05FC16B0A6801
:102CC00001680B68046C4FF0040808FA04F8844D9E
:102CD000844E854FDFF814C2DFF81492DFF814A297
:102CE000DFF814B2DFF814E218EA020F65D05FEAE9
:102CF000437862D50A68920603D40A6822F0040277
:102D00000A60DFF8F0814FF48062016808F114086E
:102D100013011402414524D9A9420DD0B1420FD06C
:102D2000B9421AD0614515D0494515D0514501D158
:102D3000120312E0594501D104220EE0714501D180
:102D400040220AE06D4D1435A94206D06B4A283264
:102D5000914201D11A4600E022466749091F0A60E4
:102D600029E0A94213D0B14215D0B94220D0614523
:102D70001BD049451BD0514502D14FF4800217E0CA
:102D8000414502D14FF0806212E0594501D1042241
:102D90000EE0714501D140220AE0584D1435A94298
:102DA00006D0564A2832914201D11A4600E0224606
:102DB0004B4908394A60C16A71E04FF0020808FACD
:102DC00004F818EA020F70D05FEA83786DD50A68BC
:102DD000920606D40A6822F00A020A60012180F8ED
:102DE0002110DFF810814FF40072016808F1140817
:102DF00013011402414524D9A9420DD0B1420FD08C
:102E0000B9421AD0614515D0494515D0514501D177
:102E1000120312E0594501D102220EE0714501D1A1
:102E200020220AE0354D1435A94206D0334A283213
:102E3000914201D11A4600E022462F49091F0A603B
:102E400029E0A94213D0B14215D0B94220D0614542
:102E50001BD049451BD0514502D14FF4001217E059
:102E6000414502D14FF0007212E0594501D10222D2
:102E70000EE0714501D120220AE0204D1435A9420F
:102E800006D01E4A2832914201D11A4600E022465D
:102E9000134908394A60002180F82010816A00290E
:102EA0001CD0BDE8F05F0847FFE70825A5401542A4
:102EB00014D01A0712D50A6822F00E020A6090F8A0
:102EC0004020C36B012101FA02F25A60816380F84D
:102ED0002110002180F82010016BE0E7BDE8F09F91
:102EE000080002401C000240300002404400024042
:102EF000580002406C000240080402401C040240DA
:102F000030B560B11A4B026814219A4209D2194BAC
:102F10001344B3FBF1F18900016417490AE0012071
:102F200030BD134B5B421344B3FBF1F189000164E4
:102F30000F490839C163022180F82110136843F654
:102F4000F0718B43F0E901142143D0E902452C4391
:102F5000214304692143446921438469214319437E
:102F6000116000214163012242770177084630BD9C
:102F700008040240F8FFFDBF0000024070B504469F
:102F800090F82000002501280CD0012084F82000B2
:102F900094F821600020012E06D084F8200002253C
:102FA000284670BD022070BD022684F82160A0630F
:102FB0002068066826F0010606602046FFF792FAB0
:102FC000E06A00282068016802D041F00E0106E0A6
:102FD00021F0040101602068016841F00A010160EC
:102FE0002068016841F001010160D9E72DE9F0474F
:102FF000054626480F460126017E01290FD00121F2
:10300000814601762868DFF888804CF25034022827
:1030100008D0A2462046FFF75BFCA8B131E00220B1
:10302000BDE8F0872046FFF753FC08BB0120FFF7FF
:10303000EFFB2046FFF74CFCD8F81010064621F0B5
:103040000401C8F810101CE04FF0FF303860AC6885
:1030500011E02046FFF7EEFB5046FFF739FCD8F8A9
:103060001010060021F00201C8F8101001D03C60D9
:1030700007E004F50064D5E9020100EBC120A0429D
:10308000E7D8002189F818103046C9E7301F002022
:10309000002002400348016941F0800101610020E5
:1030A00070470000002002402DE9F05F07461C48F1
:1030B00088460024017E15461E46012909D00121BB
:1030C000814601764CF2503A5046FFF701FC18B1A8
:1030D00022E00220BDE8F09F012F02D0022F00D095
:1030E0000427D346DFF83CA0220128463146FDF7ED
:1030F000F6F881B208EB4400FFF7AEFB5846FFF745
:10310000E7FBDAF8102022F00102CAF8102018B903
:10311000641CE4B2BC42E7D3002289F81820D9E746
:10312000301F002000200240064900200A691206D4
:1031300007D5054A4A60054A4A600969090600D56B
:10314000012070470020024023016745AB89EFCD85
:103150002DE9F84FDFF8C8910024A9F1040B2346AC
:103160000F2709F1040AABF1040ED1E00125A540B7
:1031700006EA0502AA4276D1DFF8A8C14E68A6EB9E
:103180000C0866452BD00DDC032E34D005DC36B39D
:10319000012E19D0022E2FD11BE0112E16D0122E87
:1031A0002AD119E0B8F5881F19D006DCB8F5803FA0
:1031B00015D0B8F5801F1FD111E0B8F5001F0ED053
:1031C000B8F5041F18D10AE0CB6815E0CB681B1DC9
:1031D00012E0CB6808330FE0CB680C330CE08B684F
:1031E0002BB1012B4FF0080303D0456104E0042309
:1031F00002E0056100E00023FF2A01D8064601E055
:1032000000F104064FEA840501D9A5F12005D6F89E
:10321000008007FA05FC28EA0C0803FA05F548EADD
:103220000508C6F800804D68ED0070D53E4DAE69CA
:1032300046F00106AE61AD6924F0030605F0010514
:1032400000953A4D06EB050CDCF80850A607360F42
:1032500007FA06F825EA0805DFF8D480404503D1CF
:103260004FF0000825E052E0DFF8C880404502D169
:103270004FF001081DE0DFF8C080404502D14FF05B
:10328000020816E0DFF8B480404502D14FF0030891
:103290000FE0DFF8AC80404502D14FF0040808E0B1
:1032A000DFF8A080404502D14FF0050801E04FF063
:1032B000060808FA06F848EA0508CCF808804D68C0
:1032C000D9F80060ED024D4601D5164300E0964363
:1032D0002E604D68DAF80060AD02554601D5164300
:1032E00000E096432E604D68DBF80060AD035D465C
:1032F00001D5164300E096432E604D68DEF800606D
:10330000ED03754601D5164300E096432E60641C1C
:103310000A681646E2407FF429AFBDE8F88F000046
:10332000080401400000111000100240000001409C
:1033300000080140000C0140001001400014014051
:1033400000180140001C0140C26821EA02030A4043
:1033500043EA0241016170470AB101617047090403
:10336000FBE70000014880687047000098000020DB
:1033700070B5040011D021684CF6CC40086021687B
:1033800045F255500860D4E9000141602168A06809
:103390008860FFF7E7FF05460DE0012070BD00BF24
:1033A000FFF7E0FF401B272805D92068C068800789
:1033B00001D0032070BD2068C0688007F0D121686B
:1033C0004AF6AA200860002070BD00684AF6AA21CB
:1033D00001600020704700000248816802781144B3
:1033E0008160704798000020074810B5016841F0DF
:1033F00010010160032000F0A7F80F2000F006F88C
:1034000000F050F8002010BD0020024030B5054605
:103410001F4887B0C16941F01001C161C06906A9A8
:1034200000F01000009001A800F048F90498B0B135
:1034300000F06AF940001749174AB0FBF1F117484C
:10344000491E0260416040F2E7320021C0E90321D9
:103450008160816100F082FB040003D015E000F080
:1034600053F9E8E70D4800F003FC04000DD13620C5
:1034700000F03CF8102D07D200222946362000F03B
:1034800043F80748056000E0012407B0204630BD3E
:103490000010024040420F0000100040600B00206E
:1034A0009C0000200F4808B5816941F0010181614D
:1034B000816901F001010091C16941F08051C16150
:1034C000C069002200F0805000900F21901E00F093
:1034D0001BF80548416821F0E06141F0007141604E
:1034E00008BD00000010024000000140002809DB78
:1034F00000F01F02012191404009800000F1E0200E
:10350000C0F8001170470000F0B40E4B1B680C4669
:10351000C3F30223C3F10705042D00D90425191DA7
:10352000072901D2002300E0DB1E012606FA05F17F
:10353000491E214099409E40761E16403143F0BC02
:1035400002F0E8BF0CED00E0064900F00702086851
:103550004FF6FF03184040EA0220034A1043086078
:10356000704700000CED00E00000FA05BFF34F8F3C
:1035700005480168054A01F4E06111430160BFF3A9
:103580004F8F00BFFDE700000CED00E00400FA05DE
:103590002DE9F0470F46050061D0434E306800F03A
:1035A0000700B84209D2306820F007003843306085
:1035B000306800F00700B84251D128683B4C8107C1
:1035C00012D5400703D5606840F4E0606060287859
:1035D000000703D5606840F4605060606068A968C7
:1035E00020F0F000084360602878C00728D06868A1
:1035F000012810D02168022810D0890700292EDA6E
:10360000616821F0030101436160FFF7ABFE804672
:1036100041F288390DE021688903EFE78901EDE780
:10362000FFF7A0FEA0EB0801494502D90320BDE841
:10363000F0876068696800F00C00B0EB810FEFD193
:10364000306800F00700B8420BD9306820F007005E
:1036500038433060306800F00700B84201D00120E4
:10366000E5E72878400705D56068E96820F4E06060
:10367000084360602878000706D56068296920F44F
:10368000605040EAC100606000F05EF86168084A7E
:10369000C1F30311515CC840064908600648006840
:1036A000FFF7B4FE0020C2E70020024000100240F5
:1036B00032AB0008A40000209C0000200F22026012
:1036C0000C4A536803F003034360536803F0F003AC
:1036D0008360536803F4E063C36052684FF4E063AF
:1036E00003EAD20202610448006800F007000860A3
:1036F00070470000001002400020024001480068AE
:1037000070470000A400002004480549006849688B
:10371000044AC1F30221515CC8407047A400002054
:103720000010024042AB000804480549006849689F
:10373000044AC1F3C221515CC8407047A400002074
:103740000010024042AB00080E4A51680E4801F0DA
:103750000C03042B11D0082B0FD10C48C1F3834369
:10376000C903C05C0AD55168084AC1F34041921EA2
:10377000515C054A5043B0FBF1F07047044948439F
:10378000704700000010024000127A0022AB0008CF
:1037900000093D002DE9F84F040070D02078C04D9D
:1037A000C00749D06868C0F38100012807D0686865
:1037B000C0F38100022809D16868C00306D52868D3
:1037C000800339D560680028E7D035E06068B0F53F
:1037D000803F0BD010B1B0F5A02F11D0286820F495
:1037E00080302860286820F4802002E0286840F4B7
:1037F00080302860606890B1FFF7B4FD06460AE0AB
:10380000286840F480202860F0E700BFFFF7AAFD99
:10381000801B642873D828688003F7D50CE0FFF775
:10382000A1FD064605E000BFFFF79CFD801B642854
:10383000F0D828688003F7D420789A4E80074FF09C
:1038400001094FF0000839D5686810F00C0F07D057
:103850006868C0F38100022809D16868C00306D4F3
:103860002868800714D52069012808D110E0206954
:10387000B0B1C6F80090FFF775FD074605E00AE114
:10388000FFF770FDC01B0228C4D828688007F7D551
:103890002868616920F0F80040EAC10028600DE066
:1038A000C6F80080FFF75EFD074604E0FFF75AFD0B
:1038B000C01B022823D828688007F7D42078000787
:1038C0002CD57948A169D9B1C0F80090FFF74AFD1D
:1038D000074604E0FFF746FDC01B02280FD8686AC0
:1038E0008007F7D571484FF4FA510068B0FBF1F04A
:1038F000009000BF0098411E0091FAD20EE080E0D7
:10390000C0F80080FFF72EFD074604E0FFF72AFD10
:10391000C01B022875D8686A8007F7D42078400752
:1039200060D5E8690027C00008D4E86940F08050FD
:10393000E861E869012700F0805000905C48016868
:10394000C90513D40168834641F480710160FFF713
:1039500009FD824606E000BFFFF704FDA0EB0A0068
:1039600064284ED8DBF80000C005F5D5E0680128D2
:103970000AD008B1052813D0286A20F00100286277
:10398000286A20F0040002E0286A40F00100286262
:10399000E06841F2883B98B1FFF7E4FC82460BE017
:1039A000286A40F004002862EEE700BFFFF7DAFC67
:1039B000A0EB0A0159455AD8286A8007F6D50CE0D1
:1039C000FFF7D0FC824605E0FFF7CCFCA0EB0A0134
:1039D00059454CD8286A8007F6D41FB1E86920F011
:1039E0008050E861E06988B36968C1F38101022908
:1039F00044D00228C6F8608004D0FFF7B3FC044628
:103A000038E034E0FFF7AEFC074604E0FFF7AAFC1D
:103A1000C01B02282BD828688001F7D4206AB0F593
:103A2000803F05D16868A16820F4003008436860D1
:103A3000D4E908010843696821F4741108436860F7
:103A4000C6F86090FFF78EFC044606E025E000BF54
:103A5000FFF788FC001B022809D828688001F7D5E9
:103A60001BE000BFFFF77EFC001B022802D90320E9
:103A7000BDE8F88F28688001F4D40EE00128F7D063
:103A80006868226A00F48031914204D1616A00F4CE
:103A90007010884201D00120EAE70020E8E700002A
:103AA000001002400000424280044242A400002074
:103AB0000070004010B5401EB0F1807F01D301209E
:103AC00010BD4FF0E02460610F21601702F022FD6D
:103AD0000020A06107202061002010BD70477047C2
:103AE00070B590F83C20012A2CD0012480F83C408D
:103AF000022280F83D2003685A689D6822F0700613
:103B00000A6832435A60104B02689A420ED00F4B3B
:103B10009A420BD0B2F1804F08D00D4B9A4205D09B
:103B20000C4B9A4202D00C4B9A4204D1496825F0C2
:103B300080031943916080F83D40002180F83C10DB
:103B4000084670BD022070BD002C014000340140C9
:103B50000004004000080040000C004010B50400C4
:103B600003D094F83D0010B107E0012010BD002003
:103B700084F83C00204600F01FF8022084F83D0045
:103B8000211D206801F06CFE012084F8460084F8B5
:103B90003E0084F83F0084F8400084F8410084F837
:103BA000420084F8430084F8440084F8450084F817
:103BB0003D00002010BD000000B585B0002100913F
:103BC000019102910391254A0168254891421ED135
:103BD000C16941F00201C161C16901F002010491B2
:103BE000816941F0080181618069694600F008003F
:103BF000049001200090022002901A48FFF7A8FAD2
:103C0000002205211D20FFF77FFC1D2010E0164A31
:103C1000914211D1C16941F00401C161C069002222
:103C200000F0040004900C211E20FFF76DFC1E2004
:103C3000FFF75CFC05B000BD0C4A9142FAD1C169A6
:103C400041F02001C161C069002200F02000049011
:103C50000B213720FFF758FC3720E9E7000400402C
:103C600000100240000C0140000800400014004019
:103C700090F83D10012901D001207047022180F801
:103C80003D100168CA6842F00102CA6000680E492E
:103C900088420ED00D4988420BD0B0F1804F08D039
:103CA0000B49884205D00B49884202D00A49884214
:103CB00004D1816801F00701062903D0016841F0B1
:103CC0000101016000207047002C014000340140D8
:103CD0000004004000080040000C004070B504469D
:103CE00090F83C000025012817D0012684F83C609C
:103CF000022084F83D002068826822F0770222F4D6
:103D00007F4282600868502838D00DDC20284FD0D0
:103D100005DC90B3102811D14AE0022070BD302894
:103D200046D040280AD13BE060282FD070280DD023
:103D3000B0F5805F03D0B0F5005F12D0012584F8A4
:103D40003D60002084F83C00284670BDCB68D1E976
:103D50000121206801F0D7FD2068816841F07701DA
:103D600009E0CB68D1E90121206801F0CCFD206891
:103D7000816841F480418160E1E719E0CA684968DF
:103D8000206801F0D2FD5021206806E0CA68496829
:103D9000206801F011FE6021206801F0BEFDCEE731
:103DA000CA684968206801F0C0FD40212068F4E736
:103DB000226801461046F0E770B5214DA84223D194
:103DC000204C012220492078002610B101280DD076
:103DD00034E022700868A0802868016A21F400712C
:103DE00001622868016A41F4007126E026700868C3
:103DF00080B2E0800E60144918390E60A1888842B4
:103E000003D24FF4FA60608070BD401A80B26080C7
:103E100040F257230D49A0F2A560984201D20A70E2
:103E200004E00B480E70006803F0F6FD2868016A94
:103E300021F4007101622868016A0162667070BD38
:103E4000D0070020840000203C0400400000002037
:103E5000240000202DE9F041054690F83C000026A2
:103E60000C46012810D0012085F83C0072B1042ACC
:103E70001CD0082A2CD00C2A50D00126002085F80E
:103E80003C003046BDE8F0810220FBE7D4E9001297
:103E9000E368286801F05AFD2868816921F00C0167
:103EA000816128688169A26811430FE0D4E900129A
:103EB000E368286801F092FD2868816921F4406177
:103EC000816128688169A26841EA02218161D5E7A0
:103ED0002868D4E9002C277B036A016A21F48071E9
:103EE0000162C16923F4007321F0030141EA0C016E
:103EF00021F0F00C39074FF400774CEA116107EA22
:103F000002221A43C16102622868C16921F00C01D2
:103F1000C1612868C169A26811432BE02868D4E90F
:103F20000021E768036AD0F820C02CF4805CC0F858
:103F300020C0D0F81CC023F400532CF4407C4CEA81
:103F4000012121F4704C4FF6FF7101EA07314FF463
:103F5000005741EA0C0107EA02321A43C1610262CA
:103F60002868C16921F44061C1612868C169A268FB
:103F700041EA0221C16181E710B5040003D094F841
:103F80003D0010B107E0012010BD002084F83C0086
:103F9000204600F01EF8022084F83D00211D206814
:103FA00001F05EFC012084F8460084F83E0084F8AD
:103FB0003F0084F8400084F8410084F8420084F80F
:103FC000430084F8440084F8450084F83D00002054
:103FD00010BD704730B50446002551B104290DD0FD
:103FE000082910D094F8412094F84500012A11D1F5
:103FF0000EE094F83E2094F84200F7E794F83F2052
:1040000094F84300F2E794F8402094F84400EDE778
:10401000012801D0012030BD022059B1042912D05D
:10402000082919D084F8410084F845000C293ED0B5
:1040300001253AE084F83E0084F842002068C26816
:1040400042F0020210E084F83F0084F84300206848
:10405000C26842F0040207E084F8400084F844009B
:104060002068C26842F00802C2600122206801F0A4
:104070003DFC1149206888420ED0104988420BD07F
:10408000B0F1804F08D00E49884205D00D498842D2
:1040900002D00D49884204D1816801F00701062948
:1040A00003D0016841F001010160284630BD20685D
:1040B000C26842F01002D7E7002C014000340140F2
:1040C0000004004000080040000C004070B50446A9
:1040D000006801694FF00005C943890715D4C1681C
:1040E000C943890711D4E91E0161012020772068A6
:1040F00080698007204602D0FFF75EFE04E000F0F2
:1041000098F8204600F096F8257720680169C943A1
:10411000490717D4C168C943490713D46FF0040194
:104120000161022020772068806910F4407F2046DA
:1041300002D0FFF741FE04E000F07BF8204600F0DB
:1041400079F8257720680169C943090716D4C16841
:10415000C943090712D46FF00801016104202077D8
:104160002068C0698007204602D0FFF725FE04E0E2
:1041700000F05FF8204600F05DF8257720680169BF
:10418000C943C90617D4C168C943C90613D46FF01F
:1041900010010161082020772068C06910F4407F79
:1041A000204602D0FFF708FE04E000F042F8204667
:1041B00000F040F8257720680169C943C90708D194
:1041C000C168C943C90704D1891E0161204600F0B6
:1041D00033F820680169C943090609D4C168C94395
:1041E000090605D46FF0800101612046FFF776FCD7
:1041F00020680169C943490609D4C168C943490611
:1042000005D46FF040010161204600F033F82068CA
:104210000169C94389060BD4C168C943890607D41B
:104220006FF0200101612046BDE87040FFF757BCE8
:1042300070BD70477047000010B5044600680A4919
:10424000884201D1FFF7C8F808492068884201D1A7
:1042500001F0ECFA06492068884203D1BDE810401D
:1042600001F0C0BA10BD0000001000400014004072
:10427000000800407047704710B504460068406968
:1042800094F84110C0F3C010212911D180B12068E9
:10429000143050E8001F21F0800140E80012002A8D
:1042A000F5D1A06B08B1FEF74BFC204601F0BAFD3A
:1042B0002068406994F84210C0F38010222911D17F
:1042C00080B12068143050E8001F21F0400140E820
:1042D0000012002AF5D1E06B08B1FEF731FC204650
:1042E00001F079FD002010BD70470000F8B50168AD
:1042F00004460868CA684B6910F00F0F4FF00005BC
:1043000059D003F0010602F49077374365D0C10716
:1043100005D0D10503D5616C41F00101616441070D
:1043200005D5D90703D0616C41F0020161648107B2
:1043300005D5D90703D0616C41F004016164010720
:1043400007D502F02001314303D0616C41F0080130
:104350006164616C00293AD0800604D5900602D5CC
:10436000204601F06DFD20684069616CC0F380104B
:10437000090700D460B3204601F02DFD2068406994
:10438000400621D52068143050E8001F21F040017C
:1043900040E80012002AF5D1E06BA8B16D494163F5
:1043A000E06BFEF7F1FB002811D0E06B416B01B030
:1043B000BDE8F040084783060FD593060DD520468B
:1043C000BDE8F84001F03CBD2046FFF78DFFF8BD89
:1043D0002046FFF789FF6564F8BD266B2023012E78
:1043E0007CD1C6067AD5D60678D50868486800908C
:1043F00048694FF00206400640D5E16B0868406806
:104400000004000CE8D0A28D8242E5D9E0858869DD
:1044100020282DD020680C3050E8001F21F4807136
:1044200040E80012002AF5D12068143050E8001F3F
:1044300021F0010140E80012002AF5D12068143073
:1044400050E8001F21F0400140E80012002AF5D199
:1044500084F84230256320680C3050E8001F21F0BA
:10446000100140E80012002AF5D1E06BFEF768FB6E
:104470006663A08DE18D401A81B22AE0A08DE18DA6
:10448000401A81B2E08D0028A6D00029A4D022686D
:104490000C3252E8000F20F4907042E80007002F21
:1044A000F5D12068143050E8002F22F0010240E8D6
:1044B0000027002FF5D184F84230256320680C30A6
:1044C00050E8002F22F0100240E80023002BF5D125
:1044D00066632046FFF7CFFEF8BDFFE705062BD544
:1044E000150629D594F841002128F5D1A068B0F52A
:1044F000805F01D12069B0B1206A411C216221682E
:1045000000784860E08C401E0004000CE084E3D199
:104510002068C16821F08001C1602068C16841F055
:104520004001C160D8E7206A0088C0F308004860F5
:10453000206A801C2062E5E74006CDD55006CBD529
:10454000CA68204622F04002CA6084F8413000F078
:1045500081FAC1E78D5C000870B5040004D094F8BE
:104560004100002510B106E0012070BD84F84050E4
:10457000204600F023F8242084F841002068C16818
:1045800021F40051C160204601F0BCFC20680169A3
:1045900021F4904101612068416921F02A014161C3
:1045A0002068C16841F40051C1606564202084F82E
:1045B000410084F842006563002070BD2DE9F04F92
:1045C00085B0002500950195029503950446DFF816
:1045D00068C20368994802210322012780264FF40C
:1045E00080694FF4006B4FF0100A63454DD1C369E9
:1045F00043F40023C361C36903F400230493836974
:1046000043F0100383618069CDE9009100F0100050
:10461000CDE90320DFF8288269464046FEF798FD81
:10462000CDF800B0CDE9015769464046FEF790FD50
:10463000854F8448C7E902563D617D61BD61FD61DA
:10464000C7E9000A3846FEF75BFC08B1FEF7DEF862
:10465000A7637C627C4F7B4844372838C7E9000554
:10466000C7E902563D617D61BD613846FD61FEF7D7
:1046700047FC08B1FEF7CAF8E7630022072134209F
:104680007C62FEF741FF342053E0DFF8C0C1DFF861
:10469000C081634552D1836943F480438361836958
:1046A00003F480430493836943F0040383618069C6
:1046B000039200F0040004904FF40070CDE9000173
:1046C00069464046FEF744FDCDF80090CDE901571C
:1046D00069464046FEF73CFD5B4F5E488837C7E9B8
:1046E0000005C7E902563D617D61BD613846FD6147
:1046F000FEF706FC08B1FEF789F8E7637C62524FCB
:104700005448CC371438C7E902563D617D61BD611C
:10471000FD61C7E9000A3846FEF7F2FB08B1FEF773
:1047200075F8A76300220A2125207C62FEF7ECFEC3
:104730002520FEF7DBFE05B0BDE8F08FDFF818C1DD
:10474000634525D1C36943F40033C361C36903F4EE
:1047500000330493836943F0040383618069039207
:1047600000F0040004900420CDE9000169464046B1
:10477000FEF7EEFC08208DE8A10069464046FEF7F2
:10478000E7FC002206212620FEF7BEFE2620D0E709
:10479000DFF8C8C06345CED1C36943F48023C36149
:1047A000C36903F480230493836943F0080383619E
:1047B0008069CDE9009100F00800CDE90320DFF821
:1047C000A08069464046FEF7C3FCCDF800B0CDE9B5
:1047D000015769464046FEF7BBFC224F1D48C7E91A
:1047E00002563D617D61BD613C38FD61C7E9000A4B
:1047F0003846FEF785FB08B1FEF708F8A7637C6230
:10480000184F144844372838C7E90005C7E902564D
:104810003D617D61BD613846FD61FEF771FB08B108
:10482000FDF7F4FFE7630022092127207C62FEF7F1
:104830006BFE27207DE70000004C00400010024086
:104840000010014058040240C8090020003801400F
:104850000008014058000240004400400048004069
:10486000000C0140D80A002090F84230202B01D0E3
:104870000220704721B11AB10023036301F09EBBEF
:104880000120704790F84230202B01D00220704761
:1048900021B11AB10023036301F0D8BB0120704796
:1048A00070B500682049884223D15020EFF3118170
:1048B00080F31188BFF34F8FBFF36F8F1B4C1C48E1
:1048C000216090F8C81090F89121431E425490F84E
:1048D000C810CB5C0D2B01D10A2A0BD0491C80F8E3
:1048E000C810012213491448FFF7CCFF206880F359
:1048F000118870BDC1780022522911D101794D294A
:104900000ED100210D4D06E0435C46186B54491C46
:1049100086F8C920C9B290F8C8305B1E8B42F3DC20
:1049200080F8C820DDE7000000440040900000202F
:10493000AC1300203D15002038090020641200202F
:1049400070472DE9F843044690F841001F4616468B
:104950000D46202802D00220BDE8F8837DB176B153
:1049600000206064212084F84100FEF7FBFCA6844F
:104970008046E684A068B0F5805F02D003E00120A5
:10498000EAE7206910B12E4600250EE000260CE073
:104990008021204601F075FBA0B9AEB116F8010BDD
:1049A00021684860E08C401EE084E08C43464FF074
:1049B000000200970028EBD14FF04001204601F0A3
:1049C00060FB30B10320C7E735F8020BC0F30800E5
:1049D000E6E7202084F841000020BDE770B50446DA
:1049E00090F84100202801D0022070BD49B342B3A5
:1049F0002162A284E28400206064212384F8413093
:104A0000A56B114BAB62A56B104BEB62A56B104B0A
:104A10002B63A36B5863256813462A1DA06BFEF712
:104A2000ADFA21686FF0400008602068143050E84B
:104A3000001F41F0800140E80012002AF5D100205B
:104A400070BD012070BD00008B5D0008CD5D0008C9
:104A50009D5C000870477047FEE7000070B5134684
:104A600029B1B0F1006F02D30C4CA04205D900204F
:104A700070BD40C81B1F40C101E0084D2D1F042B15
:104A800007D3A842F5D904E010F8015B01F8015BF7
:104A90005B1E0BB1A042F7D3D01A70BD0000040812
:104AA0002DE9F04F8346A0F100643A4887B0904664
:104AB0001546894684420ED26DB1B9F1000F0AD075
:104AC000FEF732FB4FEAD42AC4F34906C6F58064E8
:104AD000A54256D956E0002007B0BDE8F08F00BFD0
:104AE000BAF1800F50D24FF0006000EBCA204FF4B3
:104AF000006229490590FFF7B1FF274900204FF6D2
:104B0000FF7201EB460704E037F81010914202D122
:104B1000401CA042F8D3A04220D20026009605985F
:104B20000290012001900390049604A96846FEF7C4
:104B30005DFA48BB05E000BF39F8160027F81600FB
:104B4000761CA642F8D34FF4806632461249059887
:104B500000F024F8B04208D02D1A15E0224649464C
:104B6000584600F01BF8A042F6D109EB44090BEBC4
:104B7000440B2D1B00264FF480640AF1010AA54264
:104B800000D22C46002DABD1FEF784FAA8EB05002D
:104B90004000A1E7FFFF0300301700202DE9F0419E
:104BA00088460546164614460C4F11E0BD4211D802
:104BB000B8F80020002329460120FEF775FA29885D
:104BC000B8F80000814205D1641E08F10208AD1C4E
:104BD000002CEBD1301BBDE8F0810000FEFF030884
:104BE000214808B5416941F001014161416901F085
:104BF00001010091416941F00201416140690022D7
:104C000000F00200009005210C20FEF77DFC0C2036
:104C1000FEF76CFC002205210D20FEF775FC0D202F
:104C2000FEF764FC002205210E20FEF76DFC0E202D
:104C3000FEF75CFC002205210F20FEF765FC0F202B
:104C4000FEF754FC002205213A20FEF75DFC3A20D5
:104C5000FEF74CFC002205213B20FEF755FCBDE889
:104C600008403B20FEF742BC0010024030B5A1B026
:104C700004F044F82B4C002501216060159515A81F
:104C8000169502F0A9FEA0611795012117A81895A5
:104C900002F0A2FEE0611995012119A81A9502F00F
:104CA0009BFE20621B9501211BA81C9502F094FE1F
:104CB00060621D9501211DA81E9502F08DFE002148
:104CC000A06202F0D1FE18490022D1E90001CDE92D
:104CD0001F0111461FA802F043FF134960611C2207
:104CE00008316846FBF764FD0021684602F0EEFEDD
:104CF0000D49A0601C22243107A8FBF759FD0021B3
:104D000007A802F0E3FE0849E0601C2240310EA82B
:104D1000FBF74EFD00210EA802F0D8FE206121B065
:104D200030BD000004000020C4AA00082DE9F047AF
:104D300086B000263948009601960296039681694E
:104D400041F010018161816901F0100104918169D4
:104D500041F020018161816901F0200104918169A4
:104D600041F004018161816901F0040104918169CC
:104D700041F0080181618069DFF8A48000F008003B
:104D8000049000224FF408514046FEF7E5FA012254
:104D900004214046FEF7E0FADFF888904FF4A07750
:104DA000002239464846FEF7D7FADFF87CA00022F9
:104DB0004FF490515046FEF7CFFA012442F20420FE
:104DC000CDE90004032569464046CDE90245FEF7DA
:104DD000BFF902200094CDE9016069464846FEF71C
:104DE000B7F9CDE9007469464846CDE90245FEF7BA
:104DF000AFF92003CDE9000469465046CDE90245EC
:104E0000FEF7A6F9600203958DE851006946504609
:104E1000FEF79EF906B0BDE8F087000000100240E2
:104E20000010014000080140000C014070470000E4
:104E300010B58AB00024234804940594069407947E
:104E4000089409940094019402941D49039401600C
:104E50004721C0E901144FF6FF71C0E90314802116
:104E60008161FEF77BFE08B1FDF7D0FC4FF4805066
:104E7000049004A91348FEF731FF08B1FDF7C6FC02
:104E80001048FFF779F808B1FDF7C0FC089408A9AD
:104E90000C480994FEF724FE08B1FDF7B7FC012089
:104EA000CDE900400F20CDE90240082269460548BF
:104EB000FEF7D0FF002801D0FDF7A8FC0AB010BD16
:104EC00000040040D007002010B586B00024174829
:104ED000009401940294039404941349059401608E
:104EE0004721C0E9011442F20F71C0E90314802187
:104EF0008161FEF733FE08B1FDF788FC4FF4805066
:104F0000009069460948FEF7E9FE08B1FDF77EFC0E
:104F1000049404A905480594FEF7E2FD002801D099
:104F2000FDF774FC06B010BD000800401808002012
:104F30001CB500240E4800940C49019401604721DF
:104F4000C0E9011442F20F718461C160FEF706FEF0
:104F500008B1FDF75BFC0094694605480194FEF733
:104F6000BFFD002801D0FDF751FC1CBD001400401E
:104F7000600800200C4810B50A4901604FF4E13187
:104F80004160002181600C22C160C0E9041281618E
:104F9000C161FFF7E1FA002803D0BDE81040FDF73A
:104FA00035BC10BD004C0040A80800200C4810B5CE
:104FB0000A4901604FF4E1314160002181600C2217
:104FC000C160C0E904128161C161FFF7C5FA002820
:104FD00003D0BDE81040FDF719BC10BD00380140FA
:104FE000F00800200C4810B50A4901604FF4165132
:104FF0004160002181600C22C160C0E9041281611E
:10500000C161FFF7A9FA002803D0BDE81040FDF701
:10501000FDBB10BD00440040380900200C4810B50D
:105020000A4901604FF4E1314160002181600C22A6
:10503000C160C0E904128161C161FFF78DFA0028E7
:1050400003D0BDE81040FDF7E1BB10BD00480040B3
:1050500080090020FEE7FEE72DE9FF5F86B00646E7
:105060000020DDE914898B460546741E04904BE050
:105070000BEB05118A46D1E9020142464B4605F089
:1050800089FA01D2012700E000270BEB0414424605
:10509000D4E902014B4605F07DFA01D2012000E07F
:1050A000002087422ED0DAE902730093D4E902018E
:1050B0003A4605F097FBCDE902013A46404649469B
:1050C000009B05F08FFBCDE90001DAE90023D4E96C
:1050D000000192461F4605F085FBDDE9002305F03F
:1050E0005BF9DDE9022304F0FFFE52463B4604F083
:1050F0003FFEDDE9082305F04DFA03D2049880F065
:10510000010004902C466D1CB542B1DB04980AB036
:10511000BDE8F09F704700002DE9F047824619482E
:10512000FCB0DFF8609005788DF8005000246F46E1
:1051300000F1040809F10C0918E000BF08EB0410A5
:1051400008227AA9FFF78AFCDDE97A0107EBC40699
:105150000822C6E9020109EB04107AA9FFF77EFCD8
:10516000DDE97A01641CC6E93E01E4B2AC42E5D354
:105170004FF4F47269465046FBF71AFB7CB0BDE869
:10518000F08700000000030870B50E49EB220E4DB9
:105190000A704870D12088709020C87001221403D2
:1051A00021462846FEF7D8F84FF4FA730422054941
:1051B0000648FFF7C6FB21462846BDE8704000229E
:1051C000FEF7CAB8370F0020000C0140800900200C
:1051D00070B50E4BEB240E4D1C7058709A70D97040
:1051E000902001221871140321462846FEF7B4F8D6
:1051F0004FF4FA73052205490648FFF7A2FB214642
:105200002846BDE870400022FEF7A6B82D0F00200A
:10521000000C0140800900202DE9F047834CEB2071
:10522000834D207001206870824A002069785318ED
:1052300013F8016D6654491CC9B2187069700829C9
:10524000F4D909217C4A6970C9B2531813F8096D61
:105250006654491CC9B2187069701029F4D911211B
:10526000764A6970C9B2531813F8116D6654491C17
:10527000C9B2187069701829F4D97148714E07784D
:10528000B6F83691002F2CD0A86860764FEA10212E
:10529000A1764FEA1041E1764FEA1060207708D1FD
:1052A00096F82C01607796F82D01A07796F82E01DC
:1052B000E07768884FEA102184F8201084F82100F4
:1052C00012D196F82F0184F8220096F8300184F864
:1052D000230096F8310184F82400484605F00CF8C4
:1052E00004E0D6F83C01D0E7D5E9040184F82500B4
:1052F0004FEA102284F826204FEA104284F8272033
:105300004FEA106084F8280084F829104FEA112031
:1053100084F82A004FEA114084F82B004FEA11600C
:1053200084F82C004748B0F832018046EFB3D5E945
:10533000060100BF84F82D004FEA102284F82E20C9
:105340004FEA104284F82F204FEA106084F83000B2
:1053500084F831104FEA112084F832004FEA1140EE
:1053600084F833004FEA116084F83400EFB3D5E9D4
:10537000080100BF84F836004FEA102284F8372075
:105380004FEA104284F838204FEA106084F8390060
:1053900084F83A104FEA112084F83B004FEA11409C
:1053A00084F83C004FEA116000E02FE084F83D00F3
:1053B0007FB3D5E90A0100BF04F83E0F4FEA10227F
:1053C00062704FEA1042A2704FEA1060E0702171E3
:1053D0004FEA112060714FEA1140A0714FEA11604D
:1053E000E0714FF04F00207200E013E04FF04B00EF
:1053F00060724FF09000A072BDE8F04740F24B435E
:105400004FF0490209491048FFF79BBA04F074FFB6
:1054100090E707E096F8440184F83500484604F028
:105420006BFFA7E7404604F067FFC5E7A80B002025
:10543000300000206B000020730000207B00002063
:105440008C00002064120020F0080020ADF5167DCD
:105450006B4DDFF8B0A1DFF8B0814FF47A7B022109
:105460004446D8F8040003F057FC0021E06902F03C
:10547000FBFA002844D154464FF0C109461C2E7057
:105480002178C140C80701D0677800E0002703F009
:105490002FF984F802904A4639462878FFF798FE9B
:1054A000052002F08DFAA27839462878FFF790FEA1
:1054B000052002F085FAA27839462878FFF788FEA1
:1054C000052002F07DFAA27839462878FFF780FEA1
:1054D000052002F075FAA27839462878FFF778FEA1
:1054E000052002F06DFAA27839462878FFF770FEA1
:1054F000052002F065FA03F01BF9F0B20428BDD3D1
:1055000000214446D8F8180002F0AEFA40B93F48EE
:1055100002F074FB03F0ECF8FFF77EFE03F008F9ED
:105520000021606A02F0A0FA0021A06A02F09CFA51
:10553000002861D14FF400713548FDF705FF03F0F5
:10554000D7F8344F34493878401C3870D1E900011D
:1055500001F086FF0E4631490446D1E9000101F011
:105560007FFFCDE900460B4639780246084600F039
:105570007BFF02A8FFF7D0FD9DF8082028A17CA89A
:10558000FAF7C0FE7CA8FBF764F882B25E465B4681
:105590007CA92848FFF7D5F9002425E002A800EBF4
:1055A000C407621CD7E90201CDE9000122A17CA851
:1055B000FAF7A8FE7CA8FBF74CF882B233467CA928
:1055C0001C48FFF7BEF9D7E93E231FA17CA8FAF7D4
:1055D00099FE7CA8FBF73DF882B233467CA91548BA
:1055E000FFF7AFF9641CE4B29DF80800A042D5D8DB
:1055F000FDF754F803F09CF8012002F0E1F92EE7E2
:105600006800002034000020040000206412002004
:10561000000C0140940000204800002040000020C1
:10562000D7DCB9B2D3D020256420B8F6D7F8B1EAD8
:105630000D0A0000A8080020B5DA2564B8F6B5E325
:10564000203A20256C662C00256C660D0A000000AF
:1056500008B5084D4FF0FF34012300941A4603218A
:10566000686803F09FFBC0438007F5D10248FDF74F
:10567000ACFEF1E704000020C4070020284CE068DD
:1056800002F068FAFDF74EF9FDF708F8E06802F05D
:1056900047FA08212348FEF79DFC22480068C168AC
:1056A00041F00101C16021481F49016004214160AE
:1056B00040F253718160FDF75BFE08B1FDF7A6F87B
:1056C0001B4E00250121606803F026FB307801287D
:1056D00006D06088401C80B260800A2807D015E0A0
:1056E000302000F0BFF901202070658010E02078A4
:1056F00001280BD165802570002000F0B3F90A2045
:1057000002F05EF90121606803F006FB00F082F907
:105710000848FCF7FDFE012002F052F9D2E7000034
:1057200004000020D007002000300040C407002003
:10573000000000204015002010B5502080F3118893
:10574000BFF34F8FBFF36F8F04F048F818B10449CF
:105750004FF080500860002080F3118810BD0000D9
:1057600004ED00E030B58FB028216846FBF774F8EF
:1057700014210AA8FBF770F80920012100904FF4CA
:105780008030002404910691CDE901040225CDE981
:1057900007504FF4E01009906846FDF7FBFF08B191
:1057A00072B6FEE70F20CDE90A054FF48060CDE91F
:1057B0000C4002210AA80E94FDF7EAFE002801D051
:1057C00072B6FEE70FB030BD704700000148FEF72B
:1057D0007DBC0000D00700200148FEF777BC000028
:1057E0001808002008488178491CC9B281705029E6
:1057F00009D10021817005480078012803D10448AF
:10580000006802F009B970479500002030000020C0
:105810001C0000200148FEF759BC0000600B00206E
:105820000148FEF753BC0000600800200A480178D8
:10583000491CCAB200210270642A04D1074B0170CE
:105840001A88521C1A804278521CD2B24270142A12
:1058500000D14170FFF75EBC9500002032000020AF
:10586000F0B502681C4B1D4D1D4E1E4F1E4C4FF0D7
:10587000804C984209D0A04207D0604505D0A8428C
:1058800003D0B04201D0B84204D122F0700E4A6871
:1058900042EA0E02984209D0A04207D0604505D0E6
:1058A000A84203D0B04201D0B84203D122F44075DF
:1058B000CA682A434D6922F080022A4302608A683E
:1058C000C2620A688262984201D0A04201D109698D
:1058D000016301214161F0BD002C01400004004042
:1058E00000080040000C00400034014010B501F0F9
:1058F0001F030121046A99408C430462016A9A40A3
:105900001143016210BD10B5846842EA032224F4F9
:105910007F440A432243826010BD826822F07002F5
:105920000A4342F007018160704710B5036A046AB8
:1059300024F001040462846924F0F00444EA0214AF
:1059400023F00A020A438461026210BD70B5056A41
:10595000046A24F0010404628469124EB0420ED03D
:10596000114EB0420BD0B0F1804F08D00F4EB04274
:1059700005D00F4EB04202D00E4EB04203D124F0FB
:105980000304144301E044F001041A0724F0F00476
:1059900044EA126225F00A0301F00A011943826108
:1059A000016270BD002C0140003401400004004041
:1059B00000080040000C004010B5036A046A24F09F
:1059C00010040462846923F0A00324F4704444EAC0
:1059D000023243EA01118261016210BD30B5046AEE
:1059E000056A25F010050562856925F4407545EACC
:1059F000022222F470454FF6FF7202EA033224F0CD
:105A0000A0032A43A02404EA011119438261016220
:105A100030BD00002DE9F0410025104E104C2F46FE
:105A20006D1C257002F064FE2078FFF7ADFB02F0DC
:105A30007FFE012001F0C4FF307801280BD0A07850
:105A4000401CC0B2A0706428F3D1A770EDB2042D41
:105A5000E6D3BDE8F0813770F8E70000410F002081
:105A6000680000202DE9F0410025164E164C8046B6
:105A70002F466D1C257002F03BFEC1224146207866
:105A8000FFF7A6FB02F054FE012001F099FF02F09F
:105A90002FFE2078FFF778FB02F04AFE012001F08C
:105AA0008FFF307801280BD06078401CC0B2607046
:105AB0006428F3D16770EDB2042DDAD3BDE8F0812C
:105AC0003770F8E7410F002068000020F8B55F4804
:105AD00000680168C943C9066FD4016800254068A1
